:020000040800F2
:10000000A89F0424B1020008E9940008D5840008E0
:1000100001940008B515000881C700080000000021
:10002000000000000000000000000000BFB2000857
:100030006528000800000000210F0008BF9F00088D
:10004000CB020008CB020008CB020008CB0200085C
:10005000CB020008CB020008CB020008CB0200084C
:10006000CB020008CB020008CB020008CB0200083C
:10007000CB020008CB020008CB020008CB0200082C
:10008000CB020008CB020008CB020008CB0200081C
:10009000CB020008CB020008CB020008CB0200080C
:1000A000CB020008CB020008CB020008CB020008FC
:1000B00089B60008CB020008CB020008CB0200087A
:1000C000CB020008CB020008CB020008CB020008DC
:1000D000CB0200084DC6000865C600087DC60008B2
:1000E000CB020008CB02000800000000CB02000891
:1000F000CB020008CB020008CB020008CB020008AC
:10010000CB020008CB020008CB020008CB0200089B
:10011000DDB70008F5B70008CB020008CB020008E5
:10012000CB020008CB020008CB020008CB0200087B
:10013000CB020008CB020008CB020008CB0200086B
:1001400000000000000000000000000000000000AF
:10015000CB020008CB020008CB02000895C60008BD
:10016000CB020008CB020008CB020008CB0200083B
:10017000CB020008CB020008CB0200080000000000
:10018000CB020008CB020008CB020008CB0200081B
:10019000CB020008CB020008CB020008CB0200080B
:1001A000CB020008CB020008CB020008CB020008FB
:1001B000CB020008CB020008CB020008CB020008EB
:1001C000CB020008CB020008CB020008CB020008DB
:1001D000CB020008CB020008CB020008CB020008CB
:1001E000CB020008CB020008CB020008CB020008BB
:1001F000CB020008CB020008CB020008CB020008AB
:10020000CB020008CB020008CB020008CB0200089A
:10021000CB020008CB020008CB020008CB0200088A
:10022000CB020008CB020008CB020008000000004F
:10023000CB020008CB02000800000000CB0200083F
:10024000CB020008CB020008CB020008CB0200085A
:10025000CB020008CB020008CB020008CB0200084A
:10026000CB020008CB020008CB020008CB0200083A
:10027000CB020008CB020008CB02000800000000FF
:10028000CB02000800000000CB02000800000000C4
:1002900000000000CB020008DFF810D000F08AFB5D
:1002A00000480047B1D70008AFF30080A89F04249E
:1002B0000648804706480047FEE7FEE7FEE7FEE700
:1002C000FEE7FEE7FEE7FEE7FEE7FEE701B6000811
:1002D0009902000872B6704762B67047EFF310805B
:1002E00072B6704780F31088704730BF704720BFE8
:1002F0007047B0FA80F0704790FAA0F0B0FA80F042
:10030000704790FAA0F070472DE9F05F0546002095
:1003100092469B4688460646814640241BE0284676
:1003200041464746224600F03BF953465A46C01A1A
:10033000914110D311461846224600F016F82D1AA6
:1003400067EB01084F4622460120002100F00DF81E
:1003500017EB00094E41201EA4F10104DFDC4846E2
:1003600031462A464346BDE8F09F202A04DB203A66
:1003700000FA02F1002070479140C2F1200320FAF8
:1003800003F319439040704740EA01039B0703D0F1
:1003900009E008C9121F08C0042AFAD203E011F8C4
:1003A000013B00F8013B521EF9D27047D2B201E086
:1003B00000F8012B491EFBD270470022F6E710B56A
:1003C00013460A4604461946FFF7F0FF204610BDC3
:1003D000421C10F8011B0029FBD1801A704703460C
:1003E00011F8012B00F8012B002AF9D118467047AB
:1003F0000FB400B58DB010A909900B9000914FF08B
:10040000FF300A9000200C900548069005480790A0
:100410006A4609A80F9900F0E7F80DB05DF814FBE3
:1004200005060008230600082DE9FF5F1D464FF072
:10043000FF3BD5E9014691465F464FF00008A969A8
:100440007F1C01988847296A824688470028F6D190
:10045000BAF1FF3F0CD024F4C064002E19DD600611
:1004600014D5BAF12B0F09D0BAF12D0F0ED103E03C
:10047000584604B0BDE8F09F44F48064A9697F1C2D
:1004800001988847761E8246002E02DDBAF1300FB1
:1004900003D0B9F1000F26D032E0A969761E44F4EA
:1004A00000747F1C019888478246002E05DDBAF152
:1004B000780F06D0BAF1580F03D0B9F1000F10D061
:1004C0001EE0B9F1000F02D0B9F1100F18D1A969DF
:1004D000761E24F400747F1C019888478246102001
:1004E00002E0082000E00A20814609E008FB090834
:1004F000A969761E44F400747F1C019888478246DF
:10050000002E05DD4946504600F05AF80028EDDA85
:10051000E96901988847A00502D46FF00100A8E7B7
:10052000E00725D1600613D5600502D5C8F10000AB
:1005300000E0404629680A1D2A600968220501D5A5
:10054000087015E0220701D5088011E008600FE06F
:100550002868011D29600068210502D580F8008007
:1005600006E0210702D5A0F8008001E0C0F8008075
:1005700038467EE730B50B46014600202022012494
:1005800009E021FA02F59D4205D303FA02F5491B61
:1005900004FA02F52844151EA2F10102F1DC30BD77
:1005A000202A04DB203A21FA02F00021704721FAC8
:1005B00002F3D040C2F1200291400843194670472F
:1005C0003A2800D2303820F02002412A01D3A2F18B
:1005D0003700884201D34FF0FF3070470268114462
:1005E0001378016018467047D1600449516104498D
:1005F000116200211161114600F006BADD05000804
:10060000FD090008426842B1016811F8013B23B1BD
:10061000521EC0E90012184670470121C160881EB1
:10062000704742685AB1C368016843B983688B4216
:1006300005D0491E521CC0E90012002070474FF03F
:10064000FF3070472DE9FE4F804681EA0300C00F5E
:100650000C46009021F0004123F00045B8EB020069
:10066000A94105D24046214690461C460B4602460B
:1006700023F00040104347D0270DC7F30A00C3F30F
:100680000A510290401A019040286BDAC3F313001C
:1006900040F4801B0098924620B10023D2EB030A5D
:1006A00063EB0B0B01985946C0F140025046FFF72F
:1006B0005CFE06460D4650465946019A00F08CF9FC
:1006C00010EB08006141002487EA115284EAE773C5
:1006D0001A4340D0009A62B3019A012A4FEA0752A6
:1006E00015DC001B61EB02014FF0004202EA0752E9
:1006F000CDE90042001C41F5801132462B4600F046
:100700002AFB03B0BDE8F08F40462146F9E7001B05
:1007100061EB0201001C41F5801300185B412018B9
:10072000A2F5001747EB030140EAD570B6196D41F9
:1007300011E06D084FEA360645EAC0754FEA0752E8
:10074000001B61EB0201001C41F5801149084FEAD2
:1007500030000019514132462B4603B0BDE8F04F3E
:1007600000F0EABA0098012240000023D0EB020218
:1007700063EBE073009821464FEAE074B8EB0000A9
:1007800061EB0401E9E783F000435BE781F000419E
:1007900058E72DE9FE4F81EA030404F0004421F0FC
:1007A000004100944FF0000B23F0004350EA010495
:1007B0005ED052EA03045BD0C3F30A54C1F30A5576
:1007C0002C44A4F2F3340194A0FB0254C1F31301AE
:1007D00041F48011C3F3130343F4801301FB02447B
:1007E00000FB034E840A970A44EA815447EA835780
:1007F000A4FB076802958D0A05FB07854FEA932C39
:1008000004FB0C542705029D4FEA065847EA1637A9
:10081000B5EB08056EEB070C870E920E47EA8117C1
:1008200042EA8312A7FB0201B6EB0B0164EB000462
:100830002B0D43EA0C335E1844EB1C50DA4651464C
:10084000E7FB0201C5F313044FEA0B3343EA1453E9
:100850004FEA0432019C43EA0603A4F10C0402941B
:10086000009CCDE900B400F076FA03B0BDE8F08F4B
:1008700000200146F9E72DE9F04D81EA030404F078
:10088000004B21F0004514464FF0000A23F00041D0
:1008900050EA050220D054EA01021DD0C5F30A57E0
:1008A0000246C5F31303C1F31300C1F30A5640F423
:1008B000801543F48013A7EB0608101BD64608F2F8
:1008C000FD3873EB050002D308F1010801E092182E
:1008D0005B41B8F1000F03DA00200146BDE8F08D5E
:1008E00000204FF48011064684460EE0171B73EB80
:1008F000050705D3121B63EB050306434CEA010C05
:1009000049084FEA300092185B4150EA0107EDD1E7
:1009100052EA030012D082EA040083EA0501084388
:1009200005D0101BAB4106D20122002306E00022B5
:100930004FF0004302E06FF0010253101AEB060083
:100940004CEB085110EB0A0041EB0B01BDE8F04DF8
:1009500000F0F2B9C1F30A52C1F3130140F2FF33C0
:1009600041F480119A4202DA00200146704740F2B9
:1009700033439A42A2F2334202DC5242FFF710BEE6
:10098000FFF7F3BC30B5041E71F1000404DB4FF037
:100990000044404264EB0101141E73F1000405DBC6
:1009A0001C464FF00043524263EB0403994208BFD8
:1009B000904230BD064C074D06E0E06840F0010370
:1009C00094E8070098471034AC42F6D3FFF768FC70
:1009D000F0DA000820DB0008202A06DBCB17203ADB
:1009E00041FA02F043EAE07306E041FA02F3D04034
:1009F000C2F120029140084319467047C0B24FF43B
:100A0000F05100F0F7B900002DE9F34F8BB04FF033
:100A1000000801F10C000C464FF0010B46460DF1A9
:100A2000080A01906269012101989047051E2DD0A6
:100A3000252D2CD0216A8847C0B162690121019817
:100A40009047216A88470028F7D1411E62690198C2
:100A5000904700E0761CA1690B988847216A884777
:100A60000028F7D1E1690B988847DBE7A1690B986B
:100A700088470746A84201D1761CD3E7E1690B9865
:100A800088477F1C02D1B8F1000F6FD047E10027E3
:100A900062693D463946019890472A2804D1626927
:100AA0000121019890470125DFF8889262690121B0
:100AB00001989047A0F130010A290AD24F45E5DCA0
:100AC00007EB870100EB4107303FDFD445F010050D
:100AD000ECE7E90601D46FF000476C280AD04C28F7
:100AE00014D0682815D06A280DD074281CD07A2814
:100AF0001AD01DE062690121019890476C2802D04C
:100B000045F0040514E045F002050DE045F0200530
:100B10000AE06269012101989047682802D045F0F7
:100B2000080505E045F400656269012101989047D8
:100B3000C4E9015765283DD019DC58287AD00CDC6F
:100B4000452837D004DC252826D0412831D131E092
:100B500046282FD047282CD12CE05B2877D061285D
:100B600028D063287CD0642823D15AE0D1E06F28B4
:100B700048D008DC66281DD067281BD0692821D002
:100B80006E2816D127E0702845D0732868D07528C4
:100B900047D078280DD14DE0A1690B9888470546CC
:100BA00025283FF469AFE1690B9888476D1C3FF435
:100BB0006AAFB4E023466A466FF001000B99AFF3C9
:100BC00000809FE045F040006060A80723464FF09A
:100BD000000236D43EE0E8077FF447AF2068011DED
:100BE00021600068290501D506701BE7290701D59A
:100BF000068017E7A90703D5F117C0E9006111E7DF
:100C000006600FE745F040006060A80723464FF0FC
:100C1000080216D41EE040F60E0125EA01006060CD
:100C200016E045F040006060A80723464FF00A0236
:100C300007D40FE045F040006060A80708D52346C0
:100C400010226FF001000B99AFF300805AE007E02B
:100C5000234610226FF001000B99FFF7E5FB51E0EE
:100C60004FF000094F464B46632802D05B2807D05F
:100C700041E02079C00601D40120A06001273AE0BC
:100C800062690121019890475E2805D14FF0010962
:100C90006269494601989047216939B900210A469D
:100CA000534643F82120491C0829FADBB0B32169D7
:100CB00069B9C11700EBD16253110AEB830122F02D
:100CC0001F02821A01200B68904003430B60626987
:100CD0000121019890475D28E8D1B9F1000F09D0B2
:100CE0000020514651F82020D24341F82020401CDA
:100CF0000828F7DB02AB224600976FF001000B9942
:100D0000AFF3008000280CDA401C08D1BBF1000FC3
:100D100005D04FF0FF300DB0BDE8F08FFFE7404643
:100D2000F9E7E90701D108F1010806444FF0000B8B
:100D300078E60000CCCCCC0C10B5141E73F1000486
:100D400008DA401C41F1000192185B411A4301D1BD
:100D500020F0010010BD2DE9F04D92469B4611B1E7
:100D6000B1FA81F202E0B0FA80F220329046FFF749
:100D7000FCFA04460F4640EA0A0041EA0B015346DA
:100D80005A46084313D0114653EA010019D0C8F15E
:100D900040025046FFF704FC05460E4650465946B1
:100DA0004246FFF7E2FA084305D0012004E020465E
:100DB0003946BDE8F08D0020054346EAE0762C4335
:100DC00037430A986305E40AA0EB08000022FD0AF5
:100DD00044EA47540A3002D500200146E9E70105FC
:100DE00010196941DDE9084500196941BDE8F04D78
:100DF000A2E700007F2801D9002208E0064A02EBA2
:100E00005002C007127800D1120902F00F0201202F
:100E1000904008407047000088DA000870B58C18D0
:100E200010F8015B15F0070301D110F8013B2A11FE
:100E300006D110F8012B03E010F8016B01F8016BEB
:100E40005B1EF9D12B0705D40023521E0DD401F8E7
:100E5000013BFAE710F8013BCB1A921C03E013F8B0
:100E6000015B01F8015B521EF9D5A142D8D30020E5
:100E700070BD0000EFF3098121B120ED108A3C49DB
:100E80000A6810607047B0EC108A3A490A6810602E
:100E9000704772B64EF62250CEF2000040F2FF01CB
:100EA000C0F200010170002080F3098840F2701048
:100EB000C2F20440016881F3088808F0E1FF40F2C3
:100EC0002210C2F2044040F22311C2F204410A7817
:100ED000027040F26810C2F2044040F26C11C2F29B
:100EE00004410A680260106880F30988EFF31480F7
:100EF00040F0020080F31488BFF36F8FBDE8F04F1D
:100F00000FBCBDE8005006BC62B608471A484FF057
:100F100080510160704718484FF080510160704760
:100F200072B6EFF3098020E9F04F40F26815C2F283
:100F3000044529680860744608F0A2FF40F22210B8
:100F4000C2F2044040F22311C2F204410A78027056
:100F500040F26C11C2F204410A682A6044F0040EA7
:100F60001068B0E8F04F80F3098862B6704700005F
:100F7000680104246C01042404ED00E00026B6B0EE
:100F8000354600F09AF900210A2034AA08F098FFAB
:100F90000DF1D0084FF00309002405943320069486
:100FA000CDE90798314A05274FF0040ACDF800A093
:100FB000CDE901204FF400712D4ACDE903173148E6
:100FC0002CA1234608F042FC02AB40F266204FF40D
:100FD000C051CDF8208005942B4A83E8830029482E
:100FE0000023CDE90072294AB430CDE9064928A191
:100FF00008F02CFC2A4819A901608DF899408DF859
:10100000CE408DF898408DF8CD408DF824408DF875
:1010100097408DF8CC408DF827408DF828408DF80A
:101020005E4007F081FA0021322034AA08F048FF20
:101030001C480AF005F81C4C4FF48028574609A8B4
:1010400003F0B6F86D1CEDB2322D06D3012E4FF031
:10105000000508D00126C4F818800021012034AA18
:1010600008F02EFFEBE70026A761F6E7900B0424BB
:10107000AD100008417070205461736B206B65796E
:101080000000000028020424901304240D1200081C
:10109000417070205461736B204D61696E000000D7
:1010A000D000042454000424001002584E49D6B045
:1010B00051AD4E4A002442F21073DFF828B1A14628
:1010C0000D6053A98DF8484100258DF849418DF8F0
:1010D00028418DF84A418DF83D415093C2F800D027
:1010E0008DF824418DF822418DF820408DF8234160
:1010F0008DF82140CBF800108DF850418DF851410A
:101100008DF8524107F0E8F9DFF8E4A00026CAF8AC
:101110000040DFF8E08080223748384900EBC610F5
:10112000FFF732F906EBC60000EB061108EBC1072A
:10113000202107F15A00FFF740F9761CC7F87A40E2
:10114000F6B2082EE7D30021322055AA40E03168DC
:101150002BA00CF0B7FB34600026304600F0B4FF43
:10116000761CF6B2082EF8D36D1CEDB2322D0ED3DC
:10117000B9F1000F4FF0000505D0234901224FF0CF
:1011800000090A7003E020494FF001090C70E807DC
:1011900018D01548006808F09FF8DBF800005F469B
:1011A00009F00AFF0026304606EBC00101EB0011F2
:1011B000761C08EBC1003968F2B20AF087F8F6B283
:1011C000082EF0D34AA809F0B8FF0021012055AA43
:1011D00008F076FE08F0E6F8DAF800005646002837
:1011E000BAD0B4E7F4000424F0000424EC00042492
:1011F0009400042400008038047E042464D900088C
:101200006B65793D257800000004006008B50AF0A0
:1012100057F8154C002501262570207808281CD287
:10122000DFE800F004070A0D1013161909F01CFE80
:1012300014E00AF033F911E00BF0A4FA0EE00AF022
:10124000B9F90BE00BF0F8FA08E001F04DFC05E00D
:1012500001F0BAFC02E0267000E0257000210120B8
:101260006A4608F02DFED8E78E000424084808B529
:10127000016841F080510160006800F080500090EA
:1012800004F008F80348016841F00401016008BD5A
:10129000E04402589CEF00E038B1012807D0022852
:1012A00007D0032807D00120704704F0AFBF04F037
:1012B00067BF04F087BF04F097BF10B500F004F8D3
:1012C000BDE8104007F0D6B9002010B5FFF7E4FFE5
:1012D000BDE8104008F096BE234830B59DB00168C7
:1012E00021F00401016021491F480C300A6822F0F6
:1012F00001020A6009680168002541F4404101606B
:10130000016801F440411B9101688904FCD5022069
:10131000099001210591C30329224024CDE900232E
:1013200006910C220A90CDE90B04CDE910250D9011
:101330000F900E90684605F005F800B1FEE7082210
:101340001A94CDE91624D30113AA3F200321CDE935
:10135000184382E82300022113A804F0E3FD0028CB
:1013600000D0FEE71DB030BD0C4802582C040058D8
:1013700010B5364C2068C10707D020F00100344971
:101380004922206010200BF053FD2068810707D50B
:101390000422304920F00200206090010BF048FD4B
:1013A0002068410708D520F004002B490422206062
:1013B0004FF482700BF03CFD2068010708D520F047
:1013C00008002649042220604FF484700BF030FDA1
:1013D0002068C10608D520F0100021490A222060AB
:1013E0004FF490700BF024FD2068810608D520F0A2
:1013F00020001C490A2220604FF498700BF018FD61
:101400002068410608D520F04000174904222060DA
:101410004FF486700BF00CFD2068010608D520F013
:1014200080001249042220604FF488700BF000FD08
:101430002068C10509D50A220D4920F4807020607A
:10144000BDE8104050010BF0F3BC10BD180004249F
:10145000D973042444000424480004244C000424C8
:10146000407404244A7404241C000424200004242E
:1014700036740424104870B5007800281BD00F4C37
:101480006068082801D3002060600D4D00EBC001AA
:1014900001EB001005EBC00000F014F8606800EBF1
:1014A000C00101EB001005EBC000016801F0DBF9A1
:1014B0006068401C606070BD64000424F80004246F
:1014C000000080382DE9F04104464068002806DD20
:1014D00022680021104420606160BDE8F081204650
:1014E00000F029FA0028F8D14FF40021204600F03E
:1014F00005FA10B1204600F049F9002620460121E6
:1015000000F0FCF9C0B901262046022100F0F6F9EE
:1015100090B902262046042100F0F0F960B90326B4
:101520002046082100F0EAF930B9042620461021AF
:1015300000F0E4F90028D0D0204603F0A2F885B2EC
:101540003146204600F000FA04EB460887B21848FE
:10155000B8F80C6003F041F97119884204D31448BB
:1015600003F03BF9801B85B2BD4200D93D4620689F
:10157000A84200D285B20E4803F02AF9A919884280
:101580000BD20B4803F024F9B04204D3084803F00F
:101590001FF9801B00E0002085B2002D9DD020683F
:1015A000401B2060B8F80C002844A8F80C0094E711
:1015B00090730424FEE770472DE9F04104463F484C
:1015C00003F05DF8064694F8C6001A21401C84F822
:1015D000C600D4F8522000251072D4F85200817051
:1015E000D4F8560094F8C2704178C278837890F8A5
:1015F00004C0114490F800E003EB0C02114477455D
:10160000C9B23DD0027B492A3AD1427B502A37D118
:10161000827B992A34D1C27B882A31D14079884291
:101620002ED1204684F8C2E000F000FBD4F87F10F1
:101630000844C4F87F00204600F017FB94F8C5105A
:10164000C90638D594F8C01001F1010184F8C01022
:10165000D0B1D4F887100844C4F88700D4F88B20A0
:101660002168801A401C7043884207D840F2DC5041
:10167000C4F88F000021C4F8931005E0012503E0B1
:1016800094F8C500C00616D5D4F88F000023D4F80E
:1016900093101A461B1A8A4108DA401EC4F88F00BC
:1016A00041F1FF31C4F89310002D04D02046BDE86D
:1016B000F04100F027BFBDE8F081000090730424E2
:1016C0000449002010B5086000F01EF8BDE8104085
:1016D00000F002B80801042410B5FEF7FFFD102148
:1016E0000446044807F08DFE2046BDE81040FEF792
:1016F000F9BD0000D8890424FEE700000149086014
:1017000070470000080104240E4810B50068C107A6
:1017100005D0800703D50B490B48091F086001203D
:10172000FFF7BAFD094A00230949146844F08074A0
:1017300014604B600A6842F001020A60BDE8104084
:10174000FFF7DCBFB41F00E055CEACC5FCED00E0F8
:10175000001000E00148406870470000001000E001
:1017600008B504226946FC2009F094FC064800995B
:10177000814207D0042269460090FC200BF058FB00
:10178000012008BD002008BD785634122DE9F05F15
:10179000DFF85CC104465748BCF80C30BCF8D48074
:1017A000BCF89C11BCF864624344BCF80E20BCF841
:1017B000D6500E44BCF89E713344BCF86682154482
:1017C000BCF81010BCF8D8204744BCF8A0613D44D8
:1017D000BCF868820A44BCF81210BCF8DA70B04455
:1017E000BCF8A26142443944BCF86A72BCF82C834C
:1017F0003744BCF82E633944BCF830734344BCF81A
:1018000032833544BCF8F4633A44BCF8F67341447F
:10181000BCF8F8833344BCF8FA633D44BCF8BC74AC
:101820004244BCF8BE843144BCF8C0641F44BCF8D8
:10183000C2344544BCF884853244BCF886651944FA
:10184000BCF888354744BCF88A853544D0E900C6E1
:101850001A44D0E90230414407EB0C092E44D71852
:101860000D18254802F018FFB4F80EB00146B4F880
:1018700010E04FF0030CB4F812A0A6EB0B02A7EB9C
:101880000E00A689A5EB0A056B1802EB0008984428
:10189000B8FBFCFCA9EB0607BC4514D307EB00081A
:1018A0004FF0030C9844B8FBFCF890450BD33A4436
:1018B0001344B3FBFCF3834205D308441044B0FB4C
:1018C000FCF0A84202D20020BDE8F09FA18A06EBFE
:1018D0000B020EEB0A0023680244114419442160F4
:1018E0000020A08260822082E081A0810120EBE7BD
:1018F000000080382C7504249073042470B5D0F84F
:101900007A5004460D400AD0FEF7E8FCD4F87A106D
:10191000A943C4F87A10FEF7E5FC012070BD002051
:1019200070BDD0F88320D0F87F108A1A01D0C0F89B
:10193000831010467047D0F84A00810501D4C007D3
:1019400000D00120704700002DE9F04F8B46AD49D3
:101950000446142091B00988B1FBF0F200FB12108C
:1019600000EBC00101EB0010A74901EB8000A74983
:10197000098802F0FCFE06464FF496700F90A448CA
:101980000590A44802F088FEA349002208920E9216
:101990000A680C924B680B938F680A97C968BE4619
:1019A00002910691DDF838C0DFF870820CF1010178
:1019B0000CEBCC0707EB0C1CC9B208EBCC070829D1
:1019C000CDE90D71B7F80CA0B7F80EC0B7F81080CC
:1019D00052440D9F63440699C644B7F81290BF8ADB
:1019E00049440691089939440891DBD3DFF83082E5
:1019F0000327DFF830920121BBF1050F7BD2DFE82E
:101A00000BF0033E7BB3F00003EB0E05069B4FF09B
:101A1000640C03442B440F9D03FB0CF3B3FBF5F361
:101A20009A4203D29D1A059A954201D3002501E0FE
:101A3000002D60D198F80020002A5CD03207FCD03D
:101A400006F00F020D2A56D816F0300F53D1B0FB16
:101A5000F7F0A28990424ED2E089904205D8238ABD
:101A6000934202D8638A934245D9642805D9208AD3
:101A7000642802D9608A64283DD80C98ACE002EB57
:101A80000E05069A4FF0640C02442A440F9D02FB97
:101A90000CF2B2FBF5F2934203D2D51A059A9542A5
:101AA00001D3002501E0002D25D198F80020002A5F
:101AB00021D032071FD006F00F020D2A1BD8C6F323
:101AC0000112012A17D1B0FBF7F0E289904212D23D
:101AD000A089904205D8238A934202D8638A934210
:101AE00009D9642805D9208A642802D9608A642823
:101AF00001D80B9870E049E01344069A642502442B
:101B00001A440F9B6A43B2FBF3F2964504D2A2EB50
:101B10000E05059A954201D3002500E0B5BB98F863
:101B200000209AB3320768D006F00F020D2A64D85D
:101B3000C6F30112022A60D1B0FBF7F0228A90426C
:101B40005BD2A089904205D8E389934202D8638A88
:101B5000934252D9642805D9E089642802D9608A61
:101B600064284AD80A9837E013440EEB0005642233
:101B70002B4453430F9AB3FBF2F2069B934203D2DA
:101B8000D51A059A954202D3002501E027E035BB1E
:101B900098F800201AB332072FD006F00F020D2A52
:101BA0002BD8C6F30112032A27D1B0FBF7F0628AC3
:101BB000904222D2A089904205D8E389934202D86C
:101BC000238A934219D9642805D9E089642802D967
:101BD000208A642811D8029808B189F800100CE016
:101BE000FFE7114A6421484312690899B0FBF2F0FB
:101BF000814201D3002500E0451A11B02846BDE816
:101C0000F08F0000660004244C750424680004244E
:101C100078380100907304242C7504240000803867
:101C20001400042415000424E4D90008D0F8563028
:101C300000225978DB78994215D190F8BC30962B68
:101C400005D280F8BE105B1C80F8BC300BE090F829
:101C5000BE308B4207D000BFA1EB030201D902F5D1
:101C6000807280F8BE101046704710B5D0F856202C
:101C700000239178127991420FD190F8BF208A42C7
:101C80000BD090F8BC40962C07D38A42A1EB0203FC
:101C900001D903F5807380F8BF10184610BD00000D
:101CA0000748084902783AB10222027006480A70D1
:101CB000007800F03F007047002008707047000077
:101CC00081000424820004248000042430B50546E9
:101CD00090F8C7009BB0401C85F8C70014218DF810
:101CE00000100024134964220DF10100FEF74CFBA3
:101CF00000206946401CC0B211F8012B652822441F
:101D000094B2F7D3ADF865400121D5F85240672071
:101D100095F8C720A8356270024621736946607342
:101D200004F10E00FEF730FBE87F84F87F001BB063
:101D300030BD00001C7D042430B5054690F8C70076
:101D40009BB0401C85F8C70015218DF800100024B9
:101D5000134964220DF10100FEF716FB00206946CD
:101D6000401CC0B211F8012B6528224494B2F7D36D
:101D7000ADF865400121D5F85240672095F8C7209D
:101D8000A8356270024621736946607304F10E0043
:101D9000FEF7FAFAE87F84F87F001BB030BD000040
:101DA000807D04242DE9F047044690F8C70098B0E0
:101DB0009246401C84F8C70000254E488DF800105C
:101DC00000788DF801004C480088ADF802004B48BF
:101DD0000088ADF804004A480068CDF80600FFF717
:101DE0005FFF8DF80A00474800788DF80B00208CC3
:101DF000ADF80C00444802F04FFCCDF80E00002076
:101E00002168814607916A466168089140493F4EC2
:101E10000988ADF812103F490988ADF814103E4901
:101E20000988ADF816103D490988ADF818103C49ED
:101E30000988ADF81A1000BF04EB400102EB40081E
:101E400002EB8003B1F80CC00021A8F824C0C3F84D
:101E50002E9000BF01EBC10CD3F82E7001F10108E8
:101E60000CEB011106EBC10C0CEB400C08F0FF0170
:101E70000829BCF80CC06744C3F82E70EAD3401C94
:101E8000C0B20528D8D3274A00208DF842A0694661
:101E90001268CDF84320244A1268CDF84720234A1F
:101EA0001268CDF84B20224A1268CDF84F20A26864
:101EB000CDF85320401C11F8012BC0B22A4495B232
:101EC0005728F7D3ADF857500121D4F85250592074
:101ED00094F8C720A8346A7002462973694668736B
:101EE00005F10E00FEF750FAE07F85F87F0018B08C
:101EF000BDE8F087640004246A0004246C00042414
:101F000070000424820004249073042400008038AC
:101F10008400042486000424880004248A00042405
:101F20008C000424900004247C0004247800042401
:101F3000740004242DE9F047044690F8C70098B0D7
:101F40009246401C84F8C70000254E488DF80010CA
:101F500000788DF801004C480088ADF802004B482D
:101F60000088ADF804004A480068CDF806004948EA
:101F700000788DF80A00484800788DF80B00208C16
:101F8000ADF80C00454802F087FBCDF80E000020AC
:101F90002168814607916A46616808914149404E2F
:101FA0000988ADF8121040490988ADF814103F496E
:101FB0000988ADF816103E490988ADF818103D495A
:101FC0000988ADF81A1000BF04EB400102EB40088D
:101FD00002EB8003B1F80CC00021A8F824C0C3F8BC
:101FE0002E9000BF01EBC10CD3F82E7001F1010857
:101FF0000CEB011106EBC10C0CEB400C08F0FF01DF
:102000000829BCF80CC06744C3F82E70EAD3401C02
:10201000C0B20528D8D3284A00208DF842A06946CE
:102020001268CDF84320254A1268CDF84720244A8B
:102030001268CDF84B20234A1268CDF84F20A268D1
:10204000CDF85320401C11F8012BC0B22A4495B2A0
:102050005728F7D3ADF857500121D4F852505920E2
:1020600094F8C720A8346A700246297369466873D9
:1020700005F10E00FEF788F9E07F85F87F0018B0C3
:10208000BDE8F087640004246A0004246C00042482
:10209000700004248000042482000424907304242B
:1020A000000080388400042486000424880004246E
:1020B0008A0004248C000424900004247C0004245E
:1020C00078000424740004242DE9F84300EBC003D5
:1020D0002A4903EB00132A4A002501EBC30402EB53
:1020E000C01704F15A00D4F856100A7B492A02D1CD
:1020F0004A7B502A10D02021FEF75FF921490020A9
:1021000051F8202047F82020401C2028F8D300BF99
:10211000C4F87A50BDE8F8830A7894F87E309A4281
:1021200026D084F87E200646CA884FF00109097A35
:10213000CDF8005061F31F4242EA016857F825309C
:1021400009FA05F101EA08016A463046984747F85E
:1021500025006D1C761C202DF0D354F87A0F0099C1
:10216000084320600029D5D007A00BF0ABFBD1E7D6
:10217000044980223846FEF707F9C9E70000803895
:10218000047E042464D900087474253038780A0069
:102190000021024630B5084602EB4103491C0529DF
:1021A0009B891844F8D300280AD000214FEA010483
:1021B00002EB4103491C05299D89DD829C81F7D3EF
:1021C00030BD00002DE9F05FDFF8F88200284FF401
:1021D00080694FF4407A4FF4507B7CD0BA49642236
:1021E0000125BA4E4FF47A70B94F002442F21073B1
:1021F0000A804FF00A0C4A808D80CD80C8604C74F4
:10220000C1F813605E1EC1F817704CF25037A1F888
:1022100008C04E811E26C1F82940C1F82D4081F822
:1022200028400C74CC848E74C1F81F30C1F8417002
:10223000C1F84500C1F83930C1F83D00C1F831009E
:102240001020C1F8352049220AF0F2FDA24A4FF4CD
:102250005E71A04811600422A04908604FF48670A6
:102260009D490AF0E5FD9D4904224FF488700AF06B
:10227000DFFD9B4A00209A49C2E900000822900134
:102280000AF0D6FD9849042296480C6097490C60E4
:1022900097490860900194490AF0CAFD93490422C5
:1022A0004FF482700AF0C4FD914904224FF4847007
:1022B0000AF0BEFD8F480A228E4904604460048102
:1022C0008D480460446004814FF490700AF0B0FDC2
:1022D00089490A2200E070E04FF498700AF0A8FDE6
:1022E0008648022103220423057041700521827073
:1022F0000A22C3700171014644718471C471047271
:10230000447250010AF094FD002657464FF460795C
:102310004FF4707A06EBC60505EB061C002108EBAE
:10232000CC054FF4806004222C6000EB8600C5F8D9
:102330002240C5F82640C5F82A40C5F82E40C5F809
:10234000AC10C5F8B010C5F8B410C5F8B8102946DF
:102350000AF06EFD042207EB860005F122010AF067
:1023600067FD04220BEB860005F126010AF060FDF3
:10237000042209EB860005F12A010AF059FD042226
:102380000AEB860005F12E010AF052FD4FF4886039
:10239000082200EBC60005F1AC010AF049FD4FF43C
:1023A0009860082200EBC60005F1B4010AF040FD78
:1023B000761CF6B2082EADD37EE0434949221020A8
:1023C00008F068FE444904224FF4867008F062FE6B
:1023D000424904224FF4887008F05CFE082240490C
:1023E000900108F057FE04223F49900108F052FE88
:1023F0003E4904224FF4827008F04CFE3C4904220E
:102400004FF4847008F046FE3A490A224FF4907067
:1024100008F040FE38490A224FF4987008F03AFE5E
:102420000A223649500108F035FE4E46D1460024B6
:10243000DA464FF4607B4FF4707700BF04EBC400C2
:1024400000EB0410042208EBC00506EB84002946CB
:1024500008F020FE042209EB840005F1220108F0B7
:1024600019FE04220AEB840005F1260108F012FE91
:1024700004220BEB840005F12A0108F00BFE042274
:1024800007EB840005F12E0108F004FE4FF488608C
:10249000082200EBC40005F1AC0108F0FBFD4FF48D
:1024A0009860082200EBC40005F1B40108F0F2FDC9
:1024B000641CE4B2082CC1D3114900200860BDE8B7
:1024C000F09F00000000803890730424A086010073
:1024D00040420F0087D612001C0004242000042470
:1024E0003000042418980101380004243C0004241E
:1024F00040000424227404242C740424367404241C
:1025000090000424D0F84A2090F84E1022F4007273
:10251000C0F84A20D0F852001143417270470000C1
:1025200070B50E4C2068082801D3002020600C4DA7
:1025300000EBC00101EB001005EBC000FFF73BF81A
:102540002068411C216000EBC00202EB001005EB8B
:10255000C000BDE8704000F005B80000F800042499
:10256000000080382DE9F05F044602F040F9BB4ED0
:1025700007004FF480694FF000054FF400782DD02C
:10258000B74802F07CF878432168814201D80021E5
:1025900000E0091A44F8021BD6E90021121A61EB87
:1025A0000501C6E90021616A08446062256365632C
:1025B000A563A41E204608F03DFF22684946204638
:1025C0000AF0F6FBA549082240460AF031FCD4F88F
:1025D00026204FF4507120460AF0EAFB4FF4000722
:1025E00020463946FFF78AF900284FF4001A4FF4C5
:1025F000800B7DD02168642901DB642008E00A2972
:1026000001DB0A2004E0012901DB012000E00020B9
:1026100081422AD348B3C4F83250091AC4F836505C
:10262000C4F83A5044F8021BD6E90021121A61EBB3
:102630000501C6E90021E16A0A18E262A41E4FF40E
:10264000707120460AF0B4FB2268494620460AF021
:10265000AFFB8249082240460AF0EAFBD4F84A0060
:1026600040F00100C4F84A0025E0D4F84A000121F6
:1026700020F00100C4F84A002046FFF73FF902218C
:102680002046FFF73BF904212046FFF737F90821E0
:102690002046FFF733F910212046FFF72FF9204697
:1026A0005146FFF72BF920465946FFF727F92046F8
:1026B0003946FFF723F92046FFF733F9070027D003
:1026C000674801F0DAFF7843216801442160D6E9C8
:1026D000002112186941C6E90021D4F822100844EB
:1026E000C4F822002268494620460AF061FB00E057
:1026F00009E05A49082240460AF09AFBD4F8222001
:102700004FF44071A5E0D4F84A0020F00100A9E799
:102710004FF480712046FFF7F1F808B10A2015E068
:1027200020464146FFF7EAF808B132200EE0204685
:102730004946FFF7E3F808B1642007E04FF4006171
:102740002046FFF7DBF820B14FF4FA702084BDE893
:10275000F09F4FF480512046FFF7D0F84FF47A777E
:1027600008B12784F3E72046FFF7E5F80028EED10B
:102770004FF400312046FFF7C1F870B1384801F03E
:102780007EFF2168884208D8354801F078FF20B1E3
:102790002046BDE8F05F08F0BFB920465146FFF77C
:1027A000ADF84FF4607A28B32068400005F018FFB8
:1027B00000BB2B4802F013F8216801442160D6E9E0
:1027C000002112186941C6E90021D4F82A100844F2
:1027D000C4F82A002268494620460AF0E9FA1F494F
:1027E000082240460AF024FBD4F82A20514620460D
:1027F0000AF0DEFA20465946FFF780F80028A6D0F6
:102800002068400005F0ECFE0028A0D1208C0A28AA
:1028100001D20A2702E0642800D2642720683844E5
:102820002060D6E90010C9196841C6E90010D4F843
:102830002A0049463844C4F82A00226820460AF093
:10284000B7FA0649082240460AF0F2FAD4F82A20DC
:1028500051462046BDE8F05F0AF0AABA30000424D1
:1028600090730424704710B5044649B10021FFF766
:102870006BF80028D4F84E0007D040F0010006E0C5
:10288000D4F84E0020F01F003DE020F00100C4F815
:102890004E0001212046FFF757F80028D4F84E00DB
:1028A00002D040F0020001E020F00200C4F84E0027
:1028B00002212046FFF748F80028D4F84E0002D045
:1028C00040F0040001E020F00400C4F84E000321B1
:1028D0002046FFF739F80028D4F84E0002D040F027
:1028E000080001E020F00800C4F84E000421204652
:1028F000FFF72AF80028D4F84E0002D040F010006C
:1029000001E020F01000C4F84E00D4F8521094F802
:102910004E004872D4F85210B4F84E00000A887283
:10292000D4F85210D4F84E00000CC87210BD704795
:10293000F0B5B3F5804F05D06FF0704140F822102C
:102940000020F0BD91E838008F898E6950F8221080
:1029500024013343054E44EA05242343314043EA2E
:1029600007430B4340F82230EAE700000000F0CFB5
:10297000F0B50A6850F8223023F0010340F8223005
:102980008C68082C2CD000264A68D1E903CE22435B
:102990004CEA060C01F1140342EA0C0242EA0E0270
:1029A00093E8F8501A4322430C682A43D1E90C35C6
:1029B000324350F824603A4342EA0C02DFF840C048
:1029C00042EA0E028F6B13431D432F4326EA0C0687
:1029D0003E4340F824600A6BB2F5801F02D007E046
:1029E0004026D1E70A684AB1026842F480120260C8
:1029F0000A681AB10268496B0A4302600020F0BD00
:102A00007FFB3F00F0B5D1E901630C6800EB820267
:102A1000B1F80CE044EA06140E7D4FEA032C104B8B
:102A20000D8A4CEA0E4C44EA0C045F0107EB066683
:102A300003EB05578D693C4334432C4354600268D3
:102A4000D2020BD5098A4268446803EB015122F493
:102A50007002114324F470030B4343600020F0BD67
:102A60000000F0FF70470000D0F84E2011B122F0B6
:102A70001F0114E01A49097811F0300306D0102B19
:102A800024D0202B25D0302B0BD125E0CB431B07A6
:102A900019D001F00F010E2915D042F00101C0F844
:102AA0004E10D0F8522090F84E105172D0F85220AB
:102AB000B0F84E10090A9172D0F84E10D0F85200BA
:102AC000090CC172704742F01001E8E742F00201C0
:102AD000E5E742F00401E2E742F00801DFE7000029
:102AE000800004247047704729482DE9F04103789D
:102AF00003F00F010E2901D3042124E0C3F30111D7
:102B000005290AD2DFE801F003051B1D1F00214C37
:102B100000E0214C2288521C2280204F8046204E0B
:102B20000024204A204D3888204F3B543378012B15
:102B300011D0022B09D0297869B111540CE01C4C3A
:102B4000E8E71C4CE6E71C4CE4E7022303EB011129
:102B50001154347000E01454184E1421306808F0F9
:102B600051FC174F1421386808F0C9FB3068152153
:102B700008F048FC3868152108F0C1FB114888F8B6
:102B800000402C700178491C0170BDE8F081000004
:102B900080000424840004248600042468000424A3
:102BA00081000424807D0424820004241C7D0424EC
:102BB000880004248A0004248C000424F0000424E7
:102BC000F40004248E0004240D480B2110B5006885
:102BD00008F018FC0B480B21006808F090FB0A482D
:102BE0000A4A0188491C89B20180642904D36423FC
:102BF00003800021117010BD0120107010BD000075
:102C0000F0000424F4000424680004248E0004244A
:102C100000B590F83A108DB0002919D0C278002183
:102C200080F83A10012A13D10279012A10D1C16229
:102C300008A1027068460AF02BF9684605F01AFCF4
:102C4000074A08A168460AF023F9684605F012FC15
:102C50000DB000BD706167652030FFFFFF00000010
:102C600034DA000874302E7478743D22257322FF04
:102C7000FFFF000010B5044690F83A008EB000281F
:102C80001ED0E078002184F83A10022818D120796B
:102C9000082817D0012813D0022811D1E1620120A1
:102CA0000BA1207068460AF0F3F8684605F0E2FBD5
:102CB0000A4A0BA168460AF0EBF8684605F0DAFB11
:102CC0000EB010BD601D0AF0DFFD6062F8E7000085
:102CD000706167652030FFFFFF00000034DA0008F4
:102CE00074302E7478743D22257322FFFFFF00009C
:102CF0002DE9F043054690F83A008DB000282CD01D
:102D0000E9784FF0000885F83A80032925D1287921
:102D10004FF47A76D64F42F21079D64C19281CD24D
:102D2000DFE800F01BF0EF1B0D1E2D3C4B5A6979BC
:102D30008999AABCD3F4EDECEBEAE9E8E700681D59
:102D40000AF0A2FDB042686206D9CA48A68001F026
:102D500094FCC9A102460EE1A0800DB0BDE8F0834D
:102D6000681D0AF091FDB042686206D9C148E6804C
:102D700001F085FCC4A10246FDE0E080EDE7681D9E
:102D80000AF082FDB042686206D9BA48268001F096
:102D900026FDC1A10246EEE02080DEE7681D0AF0B4
:102DA00073FDB042686206D9B248668001F019FD31
:102DB000BDA10246DFE06080CFE7681D0AF064FD38
:102DC000B842686206D9AB48E76001F065FCBAA179
:102DD0000246D0E0E060C0E7681D0AF055FDB04251
:102DE000686206D9A348268101F0F7FCB6A1024625
:102DF000C1E02081B1E7681D0AF046FD48456862E0
:102E000007D99C48A4F80A9001F0E2FCB2A102465E
:102E1000B1E06081A1E7681D0AF036FDF028686224
:102E200007D9F020A074934801F0C7FCAEA1024678
:102E3000A1E0A07491E7681D0AF026FD0C286862E5
:102E400007D90C2060748B4801F0CFFCABA102467F
:102E500091E0607481E7681D0AF016FDB84268626F
:102E600007D98448C4F8137001F004FCA8A10246F5
:102E700081E0C4F8130070E7681D0AF005FDA94958
:102E80006862884207D97B48C4F8171001F06CFCCF
:102E9000A5A102466FE0C4F817005EE7681D0AF0BE
:102EA000F3FC686250B110280BD90F2084F8280079
:102EB000704801F087FC421CA0A15CE084F82880E7
:102EC000F6E7401E84F8280047E7681D0AF0DCFC9E
:102ED0000A28686203D20A20C4F81B0003E04845B0
:102EE00011D9C4F81B90634801F074FC98A1024604
:102EF00041E097E07FE06CE059E046E02DE01BE028
:102F000004E0A6E0A0E0C4F81B0026E7681D0AF074
:102F1000BBFCB842686202D9C4F81F7003E0B0423B
:102F200007D2C4F81F60534801F04FFC8DA1024640
:102F300021E0C4F81F0010E7E08CC10502D520F4A1
:102F4000807001E040F48070E08480B2C00501D55B
:102F500089A200E089A28AA10DE0681D0AF094FC14
:102F6000642868620ED96420C4F82D00414801F03D
:102F700026FC87A10246684609F08AFF684605F0EC
:102F800079FAEAE6C4F82D00E7E6E08C410702D5BD
:102F900020F0040001E040F00400E08494F82600F2
:102FA000400701D574A200E074A27EA1E3E7E08CA3
:102FB000810702D520F0020001E040F00200E08429
:102FC00094F82600800701D56BA200E06BA279A1DE
:102FD000D1E7E08C010702D520F0080001E040F0C5
:102FE0000800E08494F82600000701D562A200E002
:102FF00062A274A1BFE7E08CC10602D520F01000E8
:1030000001E040F01000E08494F82600C00601D5ED
:1030100059A200E059A268466EA109F039FF68463E
:1030200005F028FAE08C810602D520F0200001E0AE
:1030300040F02000E08494F82600800601D54EA2DE
:1030400000E04EA267A196E76A48016841F00101DD
:1030500001600121C5F82C806846297066A109F03D
:1030600017FF684605F006FA664A67A183E7000085
:10307000A0860100D973042474332E7478743D2221
:10308000256C6422FFFFFF0074342E7478743D2297
:10309000256C6422FFFFFF0074352E7478743D2286
:1030A000256C6422FFFFFF0074362E7478743D2275
:1030B000256C6422FFFFFF0074372E7478743D2264
:1030C000256C6422FFFFFF0074382E7478743D2253
:1030D000256C6422FFFFFF0074392E7478743D2242
:1030E000256C6422FFFFFF007431302E7478743D2C
:1030F00022256C6422FFFFFF000000007431312E96
:103100007478743D22256C6422FFFFFF00000000EC
:103110007431322E7478743D22256C6422FFFFFFD7
:103120000000000040420F007431332E7478743D6B
:1031300022256C6422FFFFFF000000007431342E52
:103140007478743D22256C6422FFFFFF00000000AC
:103150007431352E7478743D22256C6422FFFFFF94
:10316000000000007431362E7478743D22256C64A2
:1031700022FFFFFF00000000BFAA0000B9D8000036
:103180007431372E7478743D22257322FFFFFF00BF
:103190007431382E7478743D22256C6422FFFFFF51
:1031A000000000007431392E7478743D222573229A
:1031B000FFFFFF007432302E7478743D2225732295
:1031C000FFFFFF007432312E7478743D2225732284
:1031D000FFFFFF007432322E7478743D2225732273
:1031E000FFFFFF007432332E7478743D2225732262
:1031F000FFFFFF0018000424706167652030FFFFA7
:10320000FF00000034DA000874302E7478743D2218
:10321000257322FFFFFF00001FB503A9009102AB39
:1032200001AA0BA1FDF7E4F803280FD101990B487F
:10323000B1F5FA6F00D9018002994A1E0C2A00D21A
:10324000817003994A1E1F2A00D2C1701FBD000061
:1032500025642D25642D2564000000005C000424F5
:1032600000B500228DB0C2620121017008A168463C
:1032700009F00EFE684605F0FDF8084A08A1684608
:1032800009F006FE684605F0F5F80DB000BD000037
:10329000706167652030FFFFFF00000034DA00082E
:1032A00074302E7478743D22257322FFFFFF0000D6
:1032B0002DE9F04F044690F83A009FB0002878D0EE
:1032C000E178002584F83A50062972D12079012846
:1032D00012D002286ED00428F7D101202070FDA161
:1032E00002A809F0D5FD02A805F0C4F8FC4AFDA12A
:1032F00002A809F0CDFD9CE1A278FE4E012A78D00B
:10330000FD4F032A76D0042ADFD1DFF8F0934FF087
:10331000050A606ADFF8E8B3DFF8E883D9F800103F
:10332000884268D1F8A102A809F0B2FD02A805F010
:10333000A1F8E17861702179A17084F800A025637B
:10334000F848656307F07CFEF7484446CBF8005028
:10335000CBF80450ABF80850056045600581F14892
:103360000168C8F80010F1A14068C8F8040002A87C
:1033700009F08EFD02A805F07DF8EF48EFA1026884
:1033800002A809F085FD02A805F074F8EF48F0A145
:10339000026802A809F07CFD02A805F06BF8F04A6B
:1033A000F0A102A809F074FD02A805F063F8F14A43
:1033B00001E041E1D2E3F0A102A809F069FD02A811
:1033C00005F058F8E078F0A1009002A8A3782288D0
:1033D00009F05EFD02A805F04DF8A079F1A100907A
:1033E00002A86379227909F053FD02A805F042F89A
:1033F00002E01CE025E10DE33268F1A102A809F02A
:1034000047FD02A805F036F83A68F1A102A809F0D4
:103410003FFD02A805F02EF8D9F80020F0A102A87F
:1034200009F036FD02A805F025F8F1A27FE3606AF5
:10343000316888427ED1382110A8FCF7BEFFE178C0
:10344000022220796170EDA12270A07002A809F01B
:103450001FFD02A805F00EF8DFF8AC83002700BFBF
:1034600007EBC70000EB0711C7EBC70408EBC10669
:1034700004F10902E5A156F8223F02A809F008FD6F
:1034800002A804F0F7FF3168DDE910205118684107
:1034900004F10A02CDE910107368DCA102A809F05A
:1034A000F7FC02A804F0E6FF7168DDE9122051186C
:1034B000684104F10B02CDE91210B368D3A102A850
:1034C00009F0E6FC02A804F0D5FFB168DDE914209C
:1034D0005118684104F10C02CDE91410F368CBA136
:1034E00002A809F0D5FC02A804F0C4FFF168DDE9E8
:1034F00016205118684104F10D02CDE91610F36948
:10350000C2A102A809F0C4FC02A804F0B3FFF1694B
:10351000DDE918205118684104F10E02CDE91810B8
:10352000336ABAA102A809F0B3FC02A804F0A2FF12
:10353000316A00E083E0DDE91A205118684104F1A6
:103540000F02CDE91A103068B16808447168401A5A
:10355000F168461AADA1334602A809F099FC02A809
:1035600004F088FFDDE91C2007F10107921940EB08
:10357000E670FFB2082FCDE91C20FFF471AFDDE942
:103580001001C7EBC70404F10902CDE90001A4A1B1
:1035900002A809F07DFC02A804F06CFFDDE912012D
:1035A00004F10A02CDE900019DA102A809F070FC16
:1035B00002A804F05FFFDDE9140104F10B02CDE97C
:1035C000000197A102A809F063FC02A804F052FFD1
:1035D000DDE9160104F10C02CDE9000190A102A879
:1035E00009F056FC02A804F045FFDDE9180104F1DA
:1035F0000D02CDE900018AA102A809F049FC02A848
:1036000004F038FFDDE91A0104F10E02CDE90001F2
:1036100083A102A809F03CFC02A804F02BFFDDE91D
:103620001C0104F10F02CDE900017DA102A809F0FF
:103630002FFC02A804F01EFF1FB0BDE8F08F7DA193
:103640009DE2626A3B689A42F9D161700422A070DF
:103650007E497F4822704922FCF796FE7DA102A890
:1036600009F016FC02A804F005FF794801F005F8FE
:1036700037A1024602A809F00BFC02A804F0FAFEEA
:10368000734800F0FCFF76A1024602A809F000FC96
:1036900002A804F0EFFE6E4801F0A1F874A1024602
:1036A00002A809F0F5FB02A804F0E4FE684801F066
:1036B00098F873A1024602A809F0EAFB02A804F0F8
:1036C000D9FE634800F0E8FF3DA1024602A809F0D8
:1036D000DFFBDDE0706167652030FFFFFF00000069
:1036E00034DA000874302E7478743D22257322FF7A
:1036F000FFFF0000380004243C00042440000424A0
:10370000407404245C00042473797374656D636FE2
:103710006E6669672E7661302E76616C3D30FFFFF4
:10372000FF000000540004244A740424706167659B
:103730002034FFFFFF0000001C00042474322E74AC
:1037400078743D22256C6422FFFFFF0020000424D2
:1037500074332E7478743D22256C6422FFFFFF00C1
:103760002274042474342E7478743D22257322FF4D
:10377000FFFF00002C74042474352E7478743D22ED
:10378000257322FFFFFF000074362E7478743D22EB
:10379000253034642D253032642D2530326422FFEB
:1037A000FFFF00007431352E7478743D22253032CD
:1037B000642E253032642E2530326422FFFFFF0054
:1037C00074372E7478743D22256C6422FFFFFF004D
:1037D00074382E7478743D22256C6422FFFFFF003C
:1037E00074392E7478743D22256C6422FFFFFF002B
:1037F0003839353435363233000000007061676582
:103800002031FFFFFF000000000080387425642E87
:103810007478743D22256C6422FFFFFF00000000D5
:103820007425642E7478743D22256C6C6422FFFF2D
:10383000FF00000074322E7478743D22C3DCC2EBAA
:10384000B4EDCEF3A3A122FFFFFF00009073042488
:10385000D9730424706167652033FFFFFF00000007
:1038600074342E7478743D22256C6422FFFFFF00AF
:1038700074352E7478743D22256C6422FFFFFF009E
:1038800074362E7478743D22256C6422FFFFFF008D
:1038900002A804F0EFFDBC4800F09FFF0246AFF223
:1038A000D00102A809F0F4FA02A804F0E3FDB6483A
:1038B00000F08EFF0246AFF2D80102A809F0E8FA44
:1038C00002A804F0D7FDB04800F077FFAFA1024690
:1038D00002A809F0DDFA02A804F0CCFDAA4800F025
:1038E00084FFAFA1024602A809F0D2FA02A804F0B0
:1038F000C1FDA54800F0BEFEAEA1024602A809F037
:10390000C7FA02A804F0B6FD9F4800F02DFFAEA153
:10391000024602A809F0BCFA02A804F0ABFD9A48DE
:1039200000F050FF421CADA102A809F0B1FA02A8B4
:1039300004F0A0FD944800F04DFFADA1024602A89E
:1039400009F0A6FA02A804F095FD8F4800F03DFFAB
:10395000ACA1024602A809F09BFA02A804F08AFD75
:10396000894CE08CC00501D5ABA200E0ABA2ACA1B4
:1039700002A809F08DFA02A804F07CFD824800F04C
:103980001EFFABA1024602A809F082FA02A804F0C9
:1039900071FD94F82600400701D59FA200E09FA288
:1039A000A8A102A809F074FA02A804F063FD94F833
:1039B0002600800701D598A200E098A2A5A102A840
:1039C00009F066FA02A804F055FD94F826000007F5
:1039D00001D591A200E091A2A2A102A809F058FA93
:1039E00002A804F047FD94F82600C00601D58AA27B
:1039F00000E08AA29FA102A809F04AFA02A804F0F6
:103A000039FD94F82600800601D583A200E083A248
:103A10009CA16DE49F4988427FF411AE9EA102A84B
:103A200009F036FA02A804F025FDE17861702179E9
:103A3000A17084F800A025639E486563CBF8005010
:103A4000CBF80450ABF808500560456005819A48F2
:103A50000168C8F800104068C8F80400AFF23431BB
:103A600002A809F015FA02A804F004FD9348AFF289
:103A70003431026802A809F00BFA02A804F0FAFC3B
:103A80008F48AFF23431026802A809F001FA02A8A7
:103A900004F0F0FC8B4AAFF2343102A809F0F8F9D7
:103AA00002A804F0E7FC884AAFF2343102A809F01A
:103AB000EFF902A804F0DEFC98F80300009098F8F3
:103AC0000230B8F80020AFF2403102A809F0E0F966
:103AD00002A804F0CFFC98F80600009098F8053092
:103AE00098F80420AFF2443102A809F0D1F902A8F5
:103AF00004F0C0FCAFF23831326802A809F0C8F90E
:103B000002A804F0B7FCAFF238313A6802A809F015
:103B1000BFF902A804F0AEFCAFF23C31D9F80020A6
:103B200002A809F0B5F902A804F0A4FCA26A17A142
:103B300002A809F0ADF902A804F09CFC63A102A858
:103B400009F0A6F902A804F095FC64A102A809F006
:103B50009FF902A804F08EFC64A110E0601D09F03A
:103B600093FEA1786062012906D0032906D00429BA
:103B70007FF462AD61A102E067A100E06DA102A83F
:103B800009F086F955E50000D97304247431302E0C
:103B90007478743D22256C6422FFFFFF0000000052
:103BA0007431312E7478743D22256C6422FFFFFF3E
:103BB000000000007431322E7478743D22256C644C
:103BC00022FFFFFF000000007431332E7478743D33
:103BD00022256C6422FFFFFF000000007431342EA8
:103BE0007478743D22256C6422FFFFFF0000000002
:103BF0007431352E7478743D22256C6422FFFFFFEA
:103C0000000000007431362E7478743D22256C64F7
:103C100022FFFFFF00000000BFAA0000B9D800008B
:103C20007431372E7478743D22257322FFFFFF0014
:103C30007431382E7478743D22256C6422FFFFFFA6
:103C4000000000007431392E7478743D22257322EF
:103C5000FFFFFF007432302E7478743D22257322EA
:103C6000FFFFFF007432312E7478743D22257322D9
:103C7000FFFFFF007432322E7478743D22257322C8
:103C8000FFFFFF007432332E7478743D22257322B7
:103C9000FFFFFF004E61BC0073797374656D636F45
:103CA0006E6669672E7661302E76616C3D31FFFF5E
:103CB000FF0000004A740424540004241C0004245F
:103CC00020000424227404242C7404247431312E22
:103CD0007478743D2222FFFFFF0000007431322E01
:103CE0007478743D2222FFFFFF0000007431332EF0
:103CF0007478743D2222FFFFFF00000074302E74A0
:103D000078743D22CAE4C8EBCFB5CDB3C3DCC2EBB7
:103D100022FFFFFF0000000074302E7478743D22F3
:103D2000CAE4C8EBB2E9D5CBC3DCC2EB22FFFFFF8C
:103D30000000000074302E7478743D22CAE4C8EB91
:103D4000B2CECAFDC3DCC2EB22FFFFFF00000000C1
:103D500030B5044690F83A008FB000287DD0E07866
:103D6000002584F83A50002877D1962084F83C004A
:103D700080A102A809F08CF802A804F07BFB20794E
:103D80000721062869D2DFE800F09103114D6B7915
:103D9000E278A07002A8217079A16270656209F0D2
:103DA00077F802A804F066FB78A148E0E2780321E6
:103DB0006270A07002A821707BA109F069F802A8C6
:103DC00004F058FB7B487CA1026802A809F060F867
:103DD00002A804F04FFB7C487CA1026802A809F00D
:103DE00057F802A804F046FBA26A7CA102A809F0D9
:103DF0004FF802A804F03EFB7C487DA1D0E90023E7
:103E000002A809F045F802A804F034FB7D487EA121
:103E1000D0E9002302A809F03BF802A804F02AFB2D
:103E20007EA13DE0E278A07002A8217054A16270EA
:103E3000656209F02DF802A804F01CFB7BA102A822
:103E400009F026F802A804F015FB7FA102A809F0EA
:103E50001FF802A804F00EFB00E027E07EA11FE09F
:103E6000E278A07002A8217045A16270656209F035
:103E70000FF802A804F0FEFA7BA1E0E7814B0122D3
:103E800006211A70E2786270A07002A821707EA1EB
:103E900084F8385008F0FCFF02A804F0EBFA7DA18A
:103EA00002A808F0F5FF02A804F0E4FA94F83C0038
:103EB00068B1012806D17BA102A808F0E9FF02A899
:103EC00004F0D8FA94F83C00401E84F83C0094F8C2
:103ED0003B0010B1401E84F83B007548E16A006861
:103EE000814203D194F83B10002930D11921E062BE
:103EF00010F0FF0F84F83B102BD0C0B210281BD05D
:103F000008DC01280DD002280DD0042810D0082884
:103F10001AD10FE0202811D0402811D0802813D1C9
:103F200010E064A100E06AA102A808F0B1FF0BE074
:103F30006EA1F9E774A1F7E77AA1F5E77FA1F3E7AE
:103F400084A1F1E789A1EFE702A804F093FA0FB08A
:103F500030BD8C498C4809780078CDE900018B4848
:103F60008CA103788A48027802A8521C08F090FFBE
:103F7000EAE7000064696D3D313030FFFFFF00006B
:103F8000706167652036FFFFFF00000074302E74FB
:103F900078743D22CAE4C8EBB2E9D5CBC3DCC2EBEE
:103FA00022FFFFFF00000000706167652032FFFF05
:103FB000FF0000001C00042474322E7478743D222B
:103FC000256C6422FFFFFF002000042474332E744C
:103FD00078743D22256C6422FFFFFF0074342E7438
:103FE00078743D22256C6422FFFFFF002800042422
:103FF00074352E7478743D22256C6C6422FFFFFFAB
:10400000000000003000042474362E7478743D22C1
:10401000256C6C6422FFFFFF0000000074372E74D3
:1040200078743D2222FFFFFF0000000074302E74E0
:1040300078743D22CAE4C8EBB2CECAFDC3DCC2EB41
:1040400022FFFFFF0000000074312E7478743D22BF
:1040500022FFFFFF0000000074322E7478743D22AE
:1040600022FFFFFF0000000074302E7478743D22A0
:10407000CAE4C8EBCFB5CDB3C3DCC2EB22FFFFFF70
:104080000000000053000424706167652035FFFFC5
:10409000FF000000747377203235352C30FFFFFFAE
:1040A0000000000064696D3D3230FFFFFF0000003A
:1040B0009000042474322E7478743D22BBFAD0BE72
:1040C000B6A5B8CBB9CAD5CF2122FFFFFF000000AB
:1040D00074322E7478743D22BBFAD0BEC3B1D7D3EC
:1040E000B9CAD5CF2122FFFFFF00000074322E7421
:1040F00078743D22BBFAD0BEB7ADC7F2B9CAD5CFEE
:104100002122FFFFFF00000074322E7478743D22DC
:10411000BBFAD0BEC2E4C7F2B9CAD5CF2122FFFF95
:10412000FF00000074322E7478743D22D6D0D0C4C3
:10413000C5CCB9CAD5CF2122FFFFFF0074322E743F
:1041400078743D22BBFAD0BECEB4C1AABDD3212221
:10415000FFFFFF0074322E7478743D22C7F2CEBB8D
:10416000B9CAD5CF2122FFFFFF00000074322E74A0
:1041700078743D22C3C5BFD8B9CAD5CF2122FFFF6D
:10418000FF00000082000424800004246400042452
:104190008E00042474322E7478743D2225642D25FB
:1041A000642D253032782D2530327822FFFFFF0034
:1041B00070B5284D0446286890F83500B0B1FCF77A
:1041C0008DF8064628680078E07029684878891CD0
:1041D0002071601DFCF703F9012184F83A10296869
:1041E000002081F835003046FCF77CF8207809285B
:1041F00029D2DFE800F028050A0F191E23142D002C
:104200002046BDE87040FFF7A3BD2046BDE87040E2
:10421000FEF7FEBC2046BDE87040FEF72BBD2046F1
:10422000BDE87040FFF744B82046BDE87040FEF797
:104230005FBD2046BDE8704000F0D2B82046BDE822
:10424000704000F009B82046BDE87040FFF708B89C
:1042500070BD0000D000042470B5044690F83A0008
:10426000334D8EB000284FD0E078002184F83A100A
:10427000052849D120790122431E0A2B09D22D4855
:104280002DA1037068462A7084F8382008F000FEDB
:1042900037E02D4BA0F10A06102E11D21038C2B211
:1042A000985C401CC0B2062800D3002027499854CF
:1042B000521C51F8203026A1684608F0E9FD20E0A4
:1042C000202802D021280ED01EE0254E186830602C
:1042D000586870601B893381234B2248197003682A
:1042E00043F480730360E16220A16846227008F005
:1042F000CFFD684604F0BEF81F4A20A1684608F0CA
:10430000C7FD684604F0B6F894F8380058B128782C
:10431000002806D11DA1684608F0BAFD684604F0E1
:10432000A9F80EB070BD1D4800780028F2D1F8E75A
:104330005100042450000424747377203235352C46
:1043400030FFFFFF0000000054740424D400042454
:104350007425642E7478743D22257322FFFFFF00BC
:104360003674042418000424530004247061676523
:104370002030FFFFFF00000034DA000874302E7494
:1043800078743D22257322FFFFFF000074737720AD
:104390003235352C31FFFFFF0000000052000424AD
:1043A0001FB503A9009102AB01AA09A1FCF720F8EF
:1043B00003280CD101990948182900D201710299EA
:1043C0003C2900D2417103993C2900D281711FBD63
:1043D00025642E25642E2564000000005C00042462
:1043E0002DE9F047044690F83A008EB000282ED010
:1043F000E1784FF0000A84F83AA0042927D1207907
:10440000644FDFF894811428DFF89091644E1ED237
:10441000DFE800F01D5CB20A11202733484E551D1D
:104420001D1D1D1D1D1D1D3C601D09F02DFA5DA1EA
:104430000246206305E0601D09F026FA60635DA175
:10444000226B01A808F024FD01A804F013F80EB0B7
:10445000BDE8F0875B48611DFBF7C1FF594A5AA1CF
:10446000EFE75D48611DFBF7BAFF564A5BA101A863
:1044700008F00EFD01A803F0FDFF601DFEF7CCFE65
:10448000F0785AA10090B378328807E0601DFFF7FA
:1044900087FFB0795CA100907379327901A808F0A8
:1044A000F7FCD1E7601D09F0EFF960623860CEE7F4
:1044B000601D09F0E9F96062C8F80000C7E7601DF7
:1044C00009F0E2F96062C9F80000C0E7554D206BC1
:1044D00018B1286840F040002860606B18B1286867
:1044E00040F0800028603748FBF772FF18B1286859
:1044F00040F0100028603848FBF76AFF18B12868C0
:1045000040F020002860484938680968884203D094
:10451000286840F0020028604449D8F80000096883
:10452000884203D0286840F0040028604049D9F848
:1045300000000968884203D0286840F0080028601D
:104540003C4831790279914213D171794279914293
:104550000FD1B179827991420BD131880288914291
:1045600007D1B1788278914203D1F178C078814245
:1045700002D00B4808F036FC0121C4F82CA001A899
:1045800021702DA108F084FC01A803F073FF2D4ACF
:104590002DA156E744000424480004244C000424C0
:1045A0005C00042474322E7478743D22256422FF4A
:1045B000FFFF000074332E7478743D22256422FFBF
:1045C000FFFF00004074042474342E7478743D227C
:1045D000257322FFFFFF00004A74042474352E74F3
:1045E00078743D22257322FFFFFF000074362E747D
:1045F00078743D22253034642D253032642D2530E9
:10460000326422FFFFFF00007431352E7478743D50
:1046100022253032642E253032642E253032642239
:10462000FFFFFF0018000424380004243C00042489
:104630004000042454000424706167652030FFFFAB
:10464000FF00000034DA000874302E7478743D22C4
:10465000257322FFFFFF0000642801DB6420704700
:104660000A2801DB0A207047012801DB012070477E
:1046700000207047D0F81300704780887047C088CA
:104680007047008C0A2801D201207047642801D2AB
:104690000A20704764207047C068704770B5405C5E
:1046A000020711D0224A03250928137803F00F02CC
:1046B000C3F3011408D2DFE800F007080509100869
:1046C0001A2C0800632900D1002070BD09F0D0F831
:1046D00000F0070005EB001070BD09F0C9F8B0FB51
:1046E000F5F2142105FB120001EB001070BD0E2A3B
:1046F00000D304245FF0050509F0BAF8B0FBF5F12A
:1047000005FB1100A042F7D0062101EB0010C0B25A
:1047100070BD0E2A0AD2052CFAD2DFE804F003039A
:1047200005050700172070BD272070BD372070BD1C
:104730008000042400F00F01082913D2DFE801F003
:10474000120406080A0C0E1003F0E8BF04F068B863
:1047500004F034B803F0BCBF04F0A8B804F0E4B827
:1047600004F004B900207047D0F81700704770B506
:104770000D460446405D010703D000F0F0013029EA
:104780001AD909F075F800F0300609F071F80D211A
:10479000B0FBF1F201FB12000644761C09F068F848
:1047A000C00606D109F064F8C00701D00E2600E06B
:1047B0000F2606F03F00605570BD807C7047D0F832
:1047C0002D00704790F828007047D0F81F00704700
:1047D00040897047D0F81B007047008970470088F7
:1047E000704740887047C08C7047407C7047D0F855
:1047F0008B20D0F88710C0F88B10891A90F897207A
:104800008A4201D9521A00E0002280F8972090F8DD
:10481000C520D20605D4D0F84A2022F40072C0F890
:104820004A200846704700002DE9F84F044600F082
:1048300069FC00903CB194F83500022806D0802134
:1048400061650020E4E00120BDE8F88FC74DC74E48
:10485000C649183520683036DFF81483DFF8149322
:104860008842DFF814A3DFF814B32ED0A8422CD06E
:10487000B0422AD0404528D0484526D0504524D0C3
:10488000584522D0BD4A183290421ED0BC4A9042B0
:104890001BD0BB4A1832904217D0B94A30329042EE
:1048A00013D0B74A483290420FD0B54A6032904296
:1048B0000BD0B34A7832904207D0B14A903290423E
:1048C00003D0AF4AA832904209D1026822F01E02FA
:1048D00002602068426922F08002426103E00268BF
:1048E00022F00E02026027688F4238464DD0A8425F
:1048F0004BD0B04249D0404547D0484545D05045BF
:1049000043D0584541D09D4A183290423DD09C4AF0
:1049100090423AD09A4A1832904236D0984A303271
:10492000904232D0964A483290422ED0944A603219
:1049300090422AD0924A7832904226D0904A9032C1
:10494000904222D08E4AA83290421ED08D4A904288
:104950001BD08C4A1432904217D08A4A2832904297
:1049600013D0884A3C3290420FD0864A503290424F
:104970000BD0844A6432904207D0824A7832904207
:1049800003D0804A8C32974204D1206E026822F410
:104990008072026075492068884228D0A84226D0DB
:1049A000B04224D0404522D0484520D050451ED0AA
:1049B00058451CD071491831884218D07049884236
:1049C00015D06F491831884211D06D493031884275
:1049D0000DD06B494831884209D06949603188421D
:1049E00005D067497831884201D065499031016826
:1049F00021F0010101600EE000F084FB0099401AF3
:104A0000052808D9202262650321002084F835108A
:104A100084F8340017E73868C007EDD1534A012104
:104A2000206890422ED0A8422CD0B0422AD04045D7
:104A300028D0484526D0504524D0584522D04F4B49
:104A4000183398421ED04E4B98421BD04C4B183313
:104A5000984217D04A4B3033984213D0484B4833D2
:104A600098420FD0464B603398420BD0444B78337A
:104A7000984207D0424B9033984203D0404BA83322
:104A8000984208D194F85C703F23A06D07F01F078F
:104A9000BB40836007E094F85C30A06D03F01F0317
:104AA00001FA03F34360206890424DD0A8424BD0F6
:104AB000B04249D0404547D0484545D0504543D005
:104AC000584541D02D4A183290423DD02C4A904250
:104AD0003AD02B4A1832904236D0294A303290428E
:104AE00032D0274A483290422ED0254A6032904236
:104AF0002AD0234A7832904226D0214A90329042DE
:104B000022D01F4AA83290421ED01E4A90421BD08B
:104B10001C4A1432904217D01A4A2832904213D0BD
:104B2000184A3C3290420FD0164A503290420BD075
:104B3000144A6432904207D0124A7832904203D02D
:104B4000104A8C3290420BD1D4E919024260E06ED7
:104B500030B1026822F480720260D4E91C02426023
:104B6000002084F8351084F834006DE6100002400F
:104B7000580002407000024088000240A00002403D
:104B800010040240085402582DE9F05F28B190F853
:104B90003510022904D0802141650120BDE8F09F35
:104BA000904C904B0168183C18338E4ADFF83C92C9
:104BB000A1428D4CDFF838E28E4FDFF83CB2DFF8CF
:104BC0003CA28F4D8F4E31D091422FD099422DD0A3
:104BD000A1422BD0494529D0714527D0B94225D0D3
:104BE000DFF810C20CF1180C61451FD0DFF808C2C5
:104BF000ACF1600C614519D0DFF8FCC1ACF1480C98
:104C0000614513D0DFF8F0C1ACF1300C61450DD037
:104C1000DFF8E4C1ACF1180C614507D0594505D067
:104C2000514503D0A94201D0B1422CD1DFF8B4C123
:104C30004FF0040880F83580ACF1180C61451DD0A8
:104C400091421BD0994219D0A14217D0494515D0A5
:104C5000714513D0B94211D06648183081420DD049
:104C600065486038814209D063484838814205D0A0
:104C700061483038814201D05F481838086820F018
:104C800001000860ABE0D1F800C02CF00E08DFF89E
:104C900054C1C1F80080ACF1180C0168614527D0FF
:104CA000914225D0994223D0A14221D049451FD01D
:104CB00071451DD0B9421BD0DFF838C10CF1180C7A
:104CC000614515D0DFF830C1ACF1600C61450FD003
:104CD000DFF824C1ACF1480C614509D0DFF818C1F8
:104CE000ACF1300C614503D0DFF80CC1ACF1180C0D
:104CF000D1F800C02CF0010CC1F800C0DFF8E4804E
:104D00004FF0010C0168A8F11808414546D09142C6
:104D100044D0994242D0A14240D049453ED071454D
:104D20003CD0B9423AD0334A1832914236D0324A56
:104D3000603A914232D0304A483A91422ED02E4ABF
:104D4000303A91422AD02C4A183A914226D05945FD
:104D500024D0514522D0A94220D0B1421ED02A4AA7
:104D600091421BD0284A1432914217D0264A283249
:104D7000914213D0244A3C3291420FD0224A503201
:104D800091420BD0204A6432914207D01E4A7832B9
:104D9000914203D01C4A8C32914218D1016E0A68AC
:104DA00022F480720A6090F85C20816D02F01F028C
:104DB0000CFA02F24A60D0E919124A60C16E31B1B0
:104DC0000A6822F480720A60D0E91C124A6000224C
:104DD000016D80F835C080F8342001B1884700208B
:104DE000DCE600002800024058000240700002404B
:104DF00088000240A0000240700402408804024083
:104E0000A0040240B804024008540258F0B5B7B0FC
:104E1000142130A8FBF7D1FAC0216846FBF7CDFA80
:104E200024480168002942D10022012303604FF089
:104E300080711446CDE900126846129200F09CFB86
:104E40001D48016841F4805101600068022532AAC2
:104E500000F4805035904FF23F00CDE93005032635
:104E600016480C2782E8D00030A900F02FF83F2028
:104E700032AACDE93005124830A982E8D00000F00E
:104E800025F84FF4F06032AACDE930050D4830A97D
:104E900082E8D00000F01AF832AA4CF2B300CDE953
:104EA0003005094830A982E8D00000F00FF837B08B
:104EB000F0BD000000010424D4440258001402583C
:104EC0000018025800100258000C02582DE9F84F43
:104ED00003247D4D00234FF001094FF0B04B4FF0FC
:104EE0000F0AE9E009FA03F73A4076D00E7906F0A6
:104EF0000306012E01D0022E18D1D0F808C04FEAC7
:104F0000430ECE6804FA0EF82CEA080C06FA0EF6E8
:104F100046EA0C068660D0F804C00E792CEA070C2D
:104F2000C6F300169E4046EA0C0646600E79F6432C
:104F3000B6070BD0C6684FEA43088F6804FA08FC2E
:104F400026EA0C0607FA08F73743C7600E7906F021
:104F50000306022E12D1DE080F694FEA437C00EBF4
:104F60008606B646366A4FEADC6C0AFA0CF807FA8F
:104F70000CF726EA08063743CEF820700F7906684A
:104F80004FEA430807F0030704FA08FC07FA08F79A
:104F900026EA0C06374307604E6816F4403F1CD0E3
:104FA0004A4E376847F00207376036689F0706F0B9
:104FB0000206009623F0030606F1B046B6463F0F00
:104FC000D6F80864DFF808810AFA07FC404526EAAB
:104FD0000C0603D14FF0000C41E06CE0DFF8F4C0A8
:104FE000604502D14FF0010C39E0DFF8ECC06045BC
:104FF00002D14FF0020C32E0DFF8E0C0604502D190
:105000004FF0030C2BE0DFF8D8C0604502D14FF021
:10501000040C24E0DFF8CCC0604502D14FF0050C51
:105020001DE0DFF8C4C0604502D14FF0060C16E069
:10503000DFF8B8C0604502D14FF0070C0FE0DFF891
:10504000B0C0604502D14FF0080C08E0DFF8A4C002
:10505000604502D14FF0090C01E04FF00A0C0CFA48
:1050600007FC4CEA060CCEF808C44F68DBF8006079
:10507000FF0226EA020600D516435F46CBF8006021
:10508000D1F804C0DBF804605FEA8C2C26EA020643
:1050900000D516437E606E684F6826EA0206BF039D
:1050A00000D516436E602E684F6826EA0206FF039D
:1050B00000D516432E605B1C0A6832FA03F67FF4B3
:1050C00011AFBDE8F88F000080000058F44402588A
:1050D000000002580004025800080258000C025850
:1050E000001002580014025800180258001C025800
:1050F000002002580024025801480068000C704744
:105100000010005C08B5684604F026FF08BD0000EA
:10511000032010B500F0ACF801F078F80F4A104900
:1051200014681368C4F3032203F00F038A5CC95C9C
:1051300002F01F0201F01F01D0400A4A20FA01F1DB
:10514000116009490860002000F010F808B1012042
:1051500010BD00F05FF8002010BD00001844025898
:10516000F4D800080400042400000424042010B52E
:1051700000F07EF8002010BD154BF0B5083B4278DA
:1051800013491A600B680A1F23F001030B60436880
:105190001360057BC67A827A437B2D07847B45EAC0
:1051A0000665C77B90F809C0067A90F800E045EAEA
:1051B000C24040EA834040EA444040EA074040EAB7
:1051C0000C2040EA460040EA0E000860F0BD0000F6
:1051D000A0ED00E0BFF35F8F044800210368034A9D
:1051E00023F48033036070321160704724ED00E0D7
:1051F000074A40F00100064970321060086840F428
:1052000080300860BFF34F8FBFF36F8F704700008F
:1052100024ED00E07047002809DB410900F01F027F
:105220008900012001F1E0219040C1F800017047A0
:105230000E4BF0B41B680D46C3F30223C3F10706FF
:10524000042E00D90426191D072901D2002300E0ED
:10525000DB1E012404FA06F19C40491E2940641E0D
:10526000994014402143F0BC07F038BE0CED00E03B
:10527000064900F0070210B54FF6FF040868044B1A
:10528000204040EA02201843086010BD0CED00E009
:105290000000FA0570B50C4D286840F00100286048
:1052A000FFF730FF4FF47A76044606E0FFF72AFF57
:1052B000001BB04201D9012070BD2868C043C00363
:1052C000F4D4002070BD00000848025810B500F06A
:1052D00057FF05490968054AC1F30211515C01F005
:1052E0001F01C84010BD000020440258F4D8000837
:1052F000494930B5484C0B1D0A68143409681D68CB
:10530000246802F00303C5F30012C1F30531C4F3AE
:10531000CC04002914FB02F200EE102AF8EE400A39
:1053200075D03F4A9FED3D1AB7EE000A6BB1DFED35
:105330003D1A012B01D0022B64D002EE101A116825
:10534000F8EE422A81EEA22A21E0334C283C236861
:105350009B0612D5344B246801EE901A1168C4F3F1
:10536000C104F8EE612AE34001EE903AC1F308016E
:10537000F8EE611A81EEA22A0BE001EE901ADFED41
:105380002B2A00BFF8EE611A116882EEA12AC1F340
:10539000080101EE901A1168F8EE611A40EE811AC8
:1053A00071EE800A62EE200AC1F3462101EE101A66
:1053B000B8EE411A31EE001AC0EE811ABCEEE11AC5
:1053C00080ED001A1168C1F3064101EE101AB8EE23
:1053D000411A31EE001AC0EE811ABCEEE11A80EDDE
:1053E000011A1168C1F3066101EE101AB8EE411AF4
:1053F00031EE000A80EE801ABCEEC10A80ED020A8E
:1054000030BD04E001EE901ADFED092ABAE7002171
:10541000016041608160F3E72844025800000039D0
:10542000384402580024744A0090D0030024744C7D
:1054300020BCBE4B494930B5484C0B1D0A681C3492
:1054400009681D68246802F00303C5F30022C1F354
:105450000551C4F3CC04002914FB02F200EE102A1B
:10546000F8EE400A75D03F4A9FED3D1AB7EE000AAC
:105470006BB1DFED3D1A012B01D0022B64D002EE9F
:10548000101A1168F8EE422A81EEA22A21E0334C6C
:10549000283C23689B0612D5344B246801EE901AF1
:1054A0001168C4F3C104F8EE612AE34001EE903ABA
:1054B000C1F30801F8EE611A81EEA22A0BE001EEB9
:1054C000901ADFED2B2A00BFF8EE611A116882EE08
:1054D000A12AC1F3080101EE901A1168F8EE611AD1
:1054E00040EE811A71EE800A62EE200AC1F3462175
:1054F00001EE101AB8EE411A31EE001AC0EE811A10
:10550000BCEEE11A80ED001A1168C1F3064101EE0C
:10551000101AB8EE411A31EE001AC0EE811ABCEE34
:10552000E11A80ED011A1168C1F3066101EE101A4B
:10553000B8EE411A31EE000A80EE801ABCEEC10AC4
:1055400080ED020A30BD04E001EE901ADFED092A79
:10555000BAE70021016041608160F3E72844025806
:1055600000000039404402580024744A0090D003DF
:105570000024744C20BCBE4B2DE9FE4F0546DFF8DD
:10558000E48350F8081B0024F64FC943019005F14D
:105590002800264608F12408009008011DD4A86EB2
:1055A00050B1B0F5801F0CD0B0F5001F0ED0B0F593
:1055B000401F1ED001240FE0386840F400303860EE
:1055C00017E00198022105F0CBFA03E000980221D0
:1055D00005F056FB04000CD026462888C043C005C1
:1055E00023D4A86D05281ED2DFE800F00C11161B8D
:1055F0001B00AA6ED8F8001021F440111143C8F81E
:105600000010EAE7386840F40030386009E001989B
:10561000002105F0A5FA03E00098002105F030FB19
:10562000044674B100E0012426462888C043800562
:1056300028D4E86D80281ED00CDC90B140280ED113
:1056400014E0AA6DD8F8001021F007011143C8F842
:105650000010EAE7C02813D0B0F5807F10D00124F5
:105660000FE0386840F40030386009E0019800210C
:1056700005F076FA03E00098002105F001FB0446EE
:105680009CB126462888DFF8DC92C04309F12C093A
:1056900040052CD4D5F8A800B0F5800F20D00DDC43
:1056A000A0B1B0F5001F0FD115E0EA6DD8F80010D9
:1056B00021F4E0711143C8F80010E3E7B0F5C00F22
:1056C00013D0B0F5000F10D001240FE0386840F47B
:1056D0000030386009E00198002105F041FA03E04C
:1056E0000098002105F0CCFA04467CB126462888B3
:1056F000C04300052DD4D5F8AC00B0F1007F21D017
:105700000EDCA8B1B0F1807F10D116E0D5F8A8204A
:10571000D9F8001021F460011143C9F80010E6E740
:10572000B0F1407F13D0B0F1806F10D001240FE0B2
:10573000386840F40030386009E00198002105F035
:105740000FFA03E00098002105F09AFA044674B1BC
:1057500026462868C04380011FD4E86CD8B11028C1
:105760000FD0202812D0302815D0012414E0D5F80D
:10577000AC20D9F8001021F0E0611143C9F8001005
:10578000E7E7386840F40030386004E0019802210F
:1057900005F0E6F9044674B126462888C043C004E3
:1057A0002BD4286EB0F5005F20D00DDCA0B1B0F591
:1057B000805F0FD115E06B48EA6C2030016821F062
:1057C000300111430160E8E7B0F5405F13D0B0F558
:1057D000804F10D001240FE0386840F4003038606A
:1057E00009E00198002105F0BBF903E000980021D1
:1057F00005F046FA04468CB126462888C04380044A
:1058000029D4686EB0F5403F23D010DC08B3B0F562
:10581000803F14D0B0F5003F0FD115E02A6ED8F8C4
:10582000001021F4E0411143C8F80010E5E7B0F59D
:10583000802F0ED0B0F5A02F0BD001240AE00198E4
:10584000012105F08DF903E00098012105F018FA17
:10585000044694B126462888C04340042AD4D5F88B
:10586000B000B0F1405F23D010DC08B3B0F1805F2E
:1058700014D0B0F1005F0FD115E06A6ED8F80010B7
:1058800021F4E0211143C8F80010E4E7B0F1804FA3
:105890000ED0B0F1A04F0BD001240AE001980121F5
:1058A00005F05EF903E00098012105F0E9F90446EE
:1058B00074B126462888C04300041FD4286FD8B18D
:1058C000B0F1805F0ED0B0F1005F10D0012414E081
:1058D000D5F8B020D9F8001021F0E0411143C9F803
:1058E0000010E7E7386840F40030386004E00198C1
:1058F000012105F035F9044674B126462868C043F5
:10590000C0011ED4A86CD0B101280ED0022811D03D
:10591000032814D0012413E02A6FD8F8001021F0D6
:1059200040511143C8F80010E8E7386840F40030EF
:10593000386004E00198022105F012F90446ACB188
:1059400026462868DFF81CB0C043ABF11C0B4002B0
:1059500052D40548016841F480710160FFF7D2FB21
:10596000824611E02C44025800480258FA48AA6CBA
:10597000016821F0030111430160E2E7FFF7C2FB78
:10598000A0EB0A00642835D8F4480068C005F5D5B6
:105990008CBBDFF8C4A3B5F8B4100AF1240ADAF816
:1059A000000001F4407100F44070884211D0DAF830
:1059B0000010DAF8002021F4407142F48032CAF875
:1059C0000020DAF8002022F48032CAF80020CAF859
:1059D0000010D5F8B400B0F5807F1AD1FFF792FB24
:1059E000029012E0FFF78EFB0299411A41F28830D3
:1059F00081420AD9032426462878DFF85CA3C043F5
:105A00000AF1080AC00721D03CE0DAF8000080075C
:105A1000E8D5D5F8B410C1F30120032858460DD0BD
:105A2000016821F47C510160B5F8B420DAF8001067
:105A3000C2F30B021143CAF80010DDE7C84A03683D
:105A400002EA111223F47C511143ECE7E86F1828A5
:105A500016D005DCA0B1082808D0102804D10AE02F
:105A600020280DD028280BD001240AE0019801211C
:105A700005F076F803E00098012105F001F90446ED
:105A800064B126462878C04380071ED4A86F062834
:105A900019D2DFE800F0160C11161616EA6FDAF8C4
:105AA000001021F038011143CAF80010EAE701980C
:105AB000012105F055F803E00098012105F0E0F818
:105AC00004467CB100E0012426462878C043400704
:105AD0001FD4D5F89400062819D2DFE800F0160C80
