:020000040800F2
:1000000080A50424B10200080DA00008F98F0008A3
:10001000259F0008F1150008A1D20008000000008B
:10002000000000000000000000000000DFBD00082C
:10003000FD28000800000000210F0008E3AA0008C6
:10004000CB020008CB020008CB020008CB0200085C
:10005000CB020008CB020008CB020008CB0200084C
:10006000CB020008CB020008CB020008CB0200083C
:10007000CB020008CB020008CB020008CB0200082C
:10008000CB020008CB020008CB020008CB0200081C
:10009000CB020008CB020008CB020008CB0200080C
:1000A000CB020008CB020008CB020008CB020008FC
:1000B000A9C10008CB020008CB020008CB0200084F
:1000C000CB020008CB020008CB020008CB020008DC
:1000D000CB0200086DD1000885D100089DD1000831
:1000E000CB020008CB02000800000000CB02000891
:1000F000CB020008CB020008CB020008CB020008AC
:10010000CB020008CB020008CB020008CB0200089B
:10011000FDC2000815C30008CB020008CB0200088E
:10012000CB020008CB020008CB020008CB0200087B
:10013000CB020008CB020008CB020008CB0200086B
:1001400000000000000000000000000000000000AF
:10015000CB020008CB020008CB020008B5D1000892
:10016000CB020008CB020008CB020008CB0200083B
:10017000CB020008CB020008CB0200080000000000
:10018000CB020008CB020008CB020008CB0200081B
:10019000CB020008CB020008CB020008CB0200080B
:1001A000CB020008CB020008CB020008CB020008FB
:1001B000CB020008CB020008CB020008CB020008EB
:1001C000CB020008CB020008CB020008CB020008DB
:1001D000CB020008CB020008CB020008CB020008CB
:1001E000CB020008CB020008CB020008CB020008BB
:1001F000CB020008CB020008CB020008CB020008AB
:10020000CB020008CB020008CB020008CB0200089A
:10021000CB020008CB020008CB020008CB0200088A
:10022000CB020008CB020008CB020008000000004F
:10023000CB020008CB02000800000000CB0200083F
:10024000CB020008CB020008CB020008CB0200085A
:10025000CB020008CB020008CB020008CB0200084A
:10026000CB020008CB020008CB020008CB0200083A
:10027000CB020008CB020008CB02000800000000FF
:10028000CB02000800000000CB02000800000000C4
:1002900000000000CB020008DFF810D000F08AFB5D
:1002A00000480047CDE20008AFF3008080A5042499
:1002B0000648804706480047FEE7FEE7FEE7FEE700
:1002C000FEE7FEE7FEE7FEE7FEE7FEE721C10008E6
:1002D0009902000872B6704762B67047EFF310805B
:1002E00072B6704780F31088704730BF704720BFE8
:1002F0007047B0FA80F0704790FAA0F0B0FA80F042
:10030000704790FAA0F070472DE9F05F0546002095
:1003100092469B4688460646814640241BE0284676
:1003200041464746224600F03BF953465A46C01A1A
:10033000914110D311461846224600F016F82D1AA6
:1003400067EB01084F4622460120002100F00DF81E
:1003500017EB00094E41201EA4F10104DFDC4846E2
:1003600031462A464346BDE8F09F202A04DB203A66
:1003700000FA02F1002070479140C2F1200320FAF8
:1003800003F319439040704740EA01039B0703D0F1
:1003900009E008C9121F08C0042AFAD203E011F8C4
:1003A000013B00F8013B521EF9D27047D2B201E086
:1003B00000F8012B491EFBD270470022F6E710B56A
:1003C00013460A4604461946FFF7F0FF204610BDC3
:1003D000421C10F8011B0029FBD1801A704703460C
:1003E00011F8012B00F8012B002AF9D118467047AB
:1003F0000FB400B58DB010A909900B9000914FF08B
:10040000FF300A9000200C900548069005480790A0
:100410006A4609A80F9900F0E7F80DB05DF814FBE3
:1004200005060008230600082DE9FF5F1D464FF072
:10043000FF3BD5E9014691465F464FF00008A969A8
:100440007F1C01988847296A824688470028F6D190
:10045000BAF1FF3F0CD024F4C064002E19DD600611
:1004600014D5BAF12B0F09D0BAF12D0F0ED103E03C
:10047000584604B0BDE8F09F44F48064A9697F1C2D
:1004800001988847761E8246002E02DDBAF1300FB1
:1004900003D0B9F1000F26D032E0A969761E44F4EA
:1004A00000747F1C019888478246002E05DDBAF152
:1004B000780F06D0BAF1580F03D0B9F1000F10D061
:1004C0001EE0B9F1000F02D0B9F1100F18D1A969DF
:1004D000761E24F400747F1C019888478246102001
:1004E00002E0082000E00A20814609E008FB090834
:1004F000A969761E44F400747F1C019888478246DF
:10050000002E05DD4946504600F05AF80028EDDA85
:10051000E96901988847A00502D46FF00100A8E7B7
:10052000E00725D1600613D5600502D5C8F10000AB
:1005300000E0404629680A1D2A600968220501D5A5
:10054000087015E0220701D5088011E008600FE06F
:100550002868011D29600068210502D580F8008007
:1005600006E0210702D5A0F8008001E0C0F8008075
:1005700038467EE730B50B46014600202022012494
:1005800009E021FA02F59D4205D303FA02F5491B61
:1005900004FA02F52844151EA2F10102F1DC30BD77
:1005A000202A04DB203A21FA02F00021704721FAC8
:1005B00002F3D040C2F1200291400843194670472F
:1005C0003A2800D2303820F02002412A01D3A2F18B
:1005D0003700884201D34FF0FF3070470268114462
:1005E0001378016018467047D1600449516104498D
:1005F000116200211161114600F006BADD05000804
:10060000FD090008426842B1016811F8013B23B1BD
:10061000521EC0E90012184670470121C160881EB1
:10062000704742685AB1C368016843B983688B4216
:1006300005D0491E521CC0E90012002070474FF03F
:10064000FF3070472DE9FE4F804681EA0300C00F5E
:100650000C46009021F0004123F00045B8EB020069
:10066000A94105D24046214690461C460B4602460B
:1006700023F00040104347D0270DC7F30A00C3F30F
:100680000A510290401A019040286BDAC3F313001C
:1006900040F4801B0098924620B10023D2EB030A5D
:1006A00063EB0B0B01985946C0F140025046FFF72F
:1006B0005CFE06460D4650465946019A00F08CF9FC
:1006C00010EB08006141002487EA115284EAE773C5
:1006D0001A4340D0009A62B3019A012A4FEA0752A6
:1006E00015DC001B61EB02014FF0004202EA0752E9
:1006F000CDE90042001C41F5801132462B4600F046
:100700002AFB03B0BDE8F08F40462146F9E7001B05
:1007100061EB0201001C41F5801300185B412018B9
:10072000A2F5001747EB030140EAD570B6196D41F9
:1007300011E06D084FEA360645EAC0754FEA0752E8
:10074000001B61EB0201001C41F5801149084FEAD2
:1007500030000019514132462B4603B0BDE8F04F3E
:1007600000F0EABA0098012240000023D0EB020218
:1007700063EBE073009821464FEAE074B8EB0000A9
:1007800061EB0401E9E783F000435BE781F000419E
:1007900058E72DE9FE4F81EA030404F0004421F0FC
:1007A000004100944FF0000B23F0004350EA010495
:1007B0005ED052EA03045BD0C3F30A54C1F30A5576
:1007C0002C44A4F2F3340194A0FB0254C1F31301AE
:1007D00041F48011C3F3130343F4801301FB02447B
:1007E00000FB034E840A970A44EA815447EA835780
:1007F000A4FB076802958D0A05FB07854FEA932C39
:1008000004FB0C542705029D4FEA065847EA1637A9
:10081000B5EB08056EEB070C870E920E47EA8117C1
:1008200042EA8312A7FB0201B6EB0B0164EB000462
:100830002B0D43EA0C335E1844EB1C50DA4651464C
:10084000E7FB0201C5F313044FEA0B3343EA1453E9
:100850004FEA0432019C43EA0603A4F10C0402941B
:10086000009CCDE900B400F076FA03B0BDE8F08F4B
:1008700000200146F9E72DE9F04D81EA030404F078
:10088000004B21F0004514464FF0000A23F00041D0
:1008900050EA050220D054EA01021DD0C5F30A57E0
:1008A0000246C5F31303C1F31300C1F30A5640F423
:1008B000801543F48013A7EB0608101BD64608F2F8
:1008C000FD3873EB050002D308F1010801E092182E
:1008D0005B41B8F1000F03DA00200146BDE8F08D5E
:1008E00000204FF48011064684460EE0171B73EB80
:1008F000050705D3121B63EB050306434CEA010C05
:1009000049084FEA300092185B4150EA0107EDD1E7
:1009100052EA030012D082EA040083EA0501084388
:1009200005D0101BAB4106D20122002306E00022B5
:100930004FF0004302E06FF0010253101AEB060083
:100940004CEB085110EB0A0041EB0B01BDE8F04DF8
:1009500000F0F2B9C1F30A52C1F3130140F2FF33C0
:1009600041F480119A4202DA00200146704740F2B9
:1009700033439A42A2F2334202DC5242FFF710BEE6
:10098000FFF7F3BC30B5041E71F1000404DB4FF037
:100990000044404264EB0101141E73F1000405DBC6
:1009A0001C464FF00043524263EB0403994208BFD8
:1009B000904230BD064C074D06E0E06840F0010370
:1009C00094E8070098471034AC42F6D3FFF768FC70
:1009D0000CE600083CE60008202A06DBCB17203A8C
:1009E00041FA02F043EAE07306E041FA02F3D04034
:1009F000C2F120029140084319467047C0B24FF43B
:100A0000F05100F0F7B900002DE9F34F8BB04FF033
:100A1000000801F10C000C464FF0010B46460DF1A9
:100A2000080A01906269012101989047051E2DD0A6
:100A3000252D2CD0216A8847C0B162690121019817
:100A40009047216A88470028F7D1411E62690198C2
:100A5000904700E0761CA1690B988847216A884777
:100A60000028F7D1E1690B988847DBE7A1690B986B
:100A700088470746A84201D1761CD3E7E1690B9865
:100A800088477F1C02D1B8F1000F6FD047E10027E3
:100A900062693D463946019890472A2804D1626927
:100AA0000121019890470125DFF8889262690121B0
:100AB00001989047A0F130010A290AD24F45E5DCA0
:100AC00007EB870100EB4107303FDFD445F010050D
:100AD000ECE7E90601D46FF000476C280AD04C28F7
:100AE00014D0682815D06A280DD074281CD07A2814
:100AF0001AD01DE062690121019890476C2802D04C
:100B000045F0040514E045F002050DE045F0200530
:100B10000AE06269012101989047682802D045F0F7
:100B2000080505E045F400656269012101989047D8
:100B3000C4E9015765283DD019DC58287AD00CDC6F
:100B4000452837D004DC252826D0412831D131E092
:100B500046282FD047282CD12CE05B2877D061285D
:100B600028D063287CD0642823D15AE0D1E06F28B4
:100B700048D008DC66281DD067281BD0692821D002
:100B80006E2816D127E0702845D0732868D07528C4
:100B900047D078280DD14DE0A1690B9888470546CC
:100BA00025283FF469AFE1690B9888476D1C3FF435
:100BB0006AAFB4E023466A466FF001000B99AFF3C9
:100BC00000809FE045F040006060A80723464FF09A
:100BD000000236D43EE0E8077FF447AF2068011DED
:100BE00021600068290501D506701BE7290701D59A
:100BF000068017E7A90703D5F117C0E9006111E7DF
:100C000006600FE745F040006060A80723464FF0FC
:100C1000080216D41EE040F60E0125EA01006060CD
:100C200016E045F040006060A80723464FF00A0236
:100C300007D40FE045F040006060A80708D52346C0
:100C400010226FF001000B99AFF300805AE007E02B
:100C5000234610226FF001000B99FFF7E5FB51E0EE
:100C60004FF000094F464B46632802D05B2807D05F
:100C700041E02079C00601D40120A06001273AE0BC
:100C800062690121019890475E2805D14FF0010962
:100C90006269494601989047216939B900210A469D
:100CA000534643F82120491C0829FADBB0B32169D7
:100CB00069B9C11700EBD16253110AEB830122F02D
:100CC0001F02821A01200B68904003430B60626987
:100CD0000121019890475D28E8D1B9F1000F09D0B2
:100CE0000020514651F82020D24341F82020401CDA
:100CF0000828F7DB02AB224600976FF001000B9942
:100D0000AFF3008000280CDA401C08D1BBF1000FC3
:100D100005D04FF0FF300DB0BDE8F08FFFE7404643
:100D2000F9E7E90701D108F1010806444FF0000B8B
:100D300078E60000CCCCCC0C10B5141E73F1000486
:100D400008DA401C41F1000192185B411A4301D1BD
:100D500020F0010010BD2DE9F04D92469B4611B1E7
:100D6000B1FA81F202E0B0FA80F220329046FFF749
:100D7000FCFA04460F4640EA0A0041EA0B015346DA
:100D80005A46084313D0114653EA010019D0C8F15E
:100D900040025046FFF704FC05460E4650465946B1
:100DA0004246FFF7E2FA084305D0012004E020465E
:100DB0003946BDE8F08D0020054346EAE0762C4335
:100DC00037430A986305E40AA0EB08000022FD0AF5
:100DD00044EA47540A3002D500200146E9E70105FC
:100DE00010196941DDE9084500196941BDE8F04D78
:100DF000A2E700007F2801D9002208E0064A02EBA2
:100E00005002C007127800D1120902F00F0201202F
:100E10009040084070470000A4E5000870B58C18A9
:100E200010F8015B15F0070301D110F8013B2A11FE
:100E300006D110F8012B03E010F8016B01F8016BEB
:100E40005B1EF9D12B0705D40023521E0DD401F8E7
:100E5000013BFAE710F8013BCB1A921C03E013F8B0
:100E6000015B01F8015B521EF9D5A142D8D30020E5
:100E700070BD0000EFF3098121B120ED108A3C49DB
:100E80000A6810607047B0EC108A3A490A6810602E
:100E9000704772B64EF62250CEF2000040F2FF01CB
:100EA000C0F200010170002080F3098840F2801038
:100EB000C2F20440016881F3088809F073FD40F232
:100EC0003210C2F2044040F23311C2F204410A78F7
:100ED000027040F27810C2F2044040F27C11C2F27B
:100EE00004410A680260106880F30988EFF31480F7
:100EF00040F0020080F31488BFF36F8FBDE8F04F1D
:100F00000FBCBDE8005006BC62B608471A484FF057
:100F100080510160704718484FF080510160704760
:100F200072B6EFF3098020E9F04F40F27815C2F273
:100F3000044529680860744609F034FD40F2321017
:100F4000C2F2044040F23311C2F204410A78027046
:100F500040F27C11C2F204410A682A6044F0040E97
:100F60001068B0E8F04F80F3098862B6704700005F
:100F7000780104247C01042404ED00E00026B6B0CE
:100F8000354600F09AF900210A2034AA09F02AFD1A
:100F90000DF1D0084FF00309002405943320069486
:100FA000CDE90798314A05274FF0040ACDF800A093
:100FB000CDE901204FF400712D4ACDE903173148E6
:100FC0002CA1234609F0D4F902AB40F266204FF47D
:100FD000C051CDF8208005942B4A83E8830029482E
:100FE0000023CDE90072294AB430CDE9064928A191
:100FF00009F0BEF92A4819A901608DF899408DF8C9
:10100000CE408DF898408DF8CD408DF824408DF875
:1010100097408DF8CC408DF827408DF828408DF80A
:101020005E4008F013F80021322034AA09F0DAFCFF
:101030001C480AF097FD1C4C4FF48028574609A81D
:1010400003F044FE6D1CEDB2322D06D3012E4FF09D
:10105000000508D00126C4F818800021012034AA18
:1010600009F0C0FCEBE70026A761F6E7A00B04241B
:10107000AD100008417070205461736B206B65796E
:101080000000000038020424A01304240D120008FC
:10109000417070205461736B204D61696E000000D7
:1010A000D40004245B000424001002584E49D6B03A
:1010B00051AD4E4A002442F21073DFF828B1A14628
:1010C0000D6053A98DF8484100258DF849418DF8F0
:1010D00028418DF84A418DF83D415093C2F800D027
:1010E0008DF824418DF822418DF820408DF8234160
:1010F0008DF82140CBF800108DF850418DF851410A
:101100008DF8524107F07AFFDFF8E4A00026CAF814
:101110000040DFF8E08080223748384900EBC610F5
:10112000FFF732F906EBC60000EB061108EBC1072A
:10113000202107F15A00FFF740F9761CC7F87A40E2
:10114000F6B2082EE7D30021322055AA40E03168DC
:101150002BA00DF045F934600026304600F0DCFF8E
:10116000761CF6B2082EF8D36D1CEDB2322D0ED3DC
:10117000B9F1000F4FF0000505D0234901224FF0CF
:1011800000090A7003E020494FF001090C70E807DC
:1011900018D01548006808F031FEDBF800005F4603
:1011A0000AF09CFC0026304606EBC00101EB001162
:1011B000761C08EBC1003968F2B20AF017FEF6B2ED
:1011C000082EF0D34AA80AF048FD0021012055AAB4
:1011D00009F008FC08F078FEDAF80000564600280E
:1011E000BAD0B4E70401042400010424FC00042460
:1011F0009800042400008038C07F042480E40008A4
:101200006B65793D257800000004006008B50AF0A0
:10121000E7FD154C002501262570207808281CD2F2
:10122000DFE800F004070A0D101316190AF0AEFBF0
:1012300014E00AF0C3FE11E00CF034F80EE00AF0FE
:1012400049FF0BE00CF088F808E001F099FC05E09C
:1012500001F006FD02E0267000E02570002101206B
:101260006A4609F0BFFBD8E792000424084808B595
:10127000016841F080510160006800F080500090EA
:1012800004F09AFD0348016841F00401016008BDC3
:10129000E04402589CEF00E038B1012807D0022852
:1012A00007D0032807D00120704705F041BD05F0A5
:1012B000F9BC05F019BD05F029BD10B500F004F822
:1012C000BDE8104007F068BF002010B5FFF7E4FF4D
:1012D000BDE8104009F028BC234830B59DB0016836
:1012E00021F00401016021491F480C300A6822F0F6
:1012F00001020A6009680168002541F4404101606B
:10130000016801F440411B9101688904FCD5022069
:10131000099001210591C30329224024CDE900232E
:1013200006910C220A90CDE90B04CDE910250D9011
:101330000F900E90684605F097FD00B1FEE7082279
:101340001A94CDE91624D30113AA3F200321CDE935
:10135000184382E82300022113A805F075FB00283A
:1013600000D0FEE71DB030BD0C4802582C040058D8
:1013700070B5434C2068C10707D020F001004149F7
:101380004E22206010200CF0E3FA2068810707D578
:1013900004223D4920F00200206090010CF0D8FAB0
:1013A0002068410708D520F0040038490422206055
:1013B0004FF482700CF0CCFA2068010708D520F0B9
:1013C00008003349042220604FF484700CF0C0FA06
:1013D0002068C10608D520F010002E490A2220609E
:1013E0004FF490700CF0B4FA2068810608D520F014
:1013F000200029490A2220604FF498700CF0A8FAC6
:101400002068410608D520F04000244904222060CD
:101410004FF486700CF09CFA2068010608D520F085
:1014200080001F49042220604FF488700CF090FA6D
:1014300020684FF4A075C10507D520F480701949C4
:101440000A22206028460CF083FA2068810508D51E
:1014500020F4007014492A4620604FF4AA600CF072
:1014600077FA206841050AD520F480602060BDE845
:1014700070400E4960224FF4E0600CF069BA70BD14
:1014800018000424EE7304244C00042450000424A7
:10149000540004245A740424647404241C00042496
:1014A0002000042450740424A6750424E674042443
:1014B000104870B5007800281BD00F4C60680828D1
:1014C00001D3002060600D4D00EBC00101EB001066
:1014D00005EBC00000F014F8606800EBC00101EB00
:1014E000001005EBC000016801F009FA6068401CBB
:1014F000606070BD6B000424080104240000803883
:101500002DE9F04104464068002806DD22680021EC
:10151000104420606160BDE8F081204600F029FAA7
:101520000028F8D14FF40021204600F005FA10B150
:10153000204600F049F900262046012100F0FCF980
:10154000C0B901262046022100F0F6F990B9022622
:101550002046042100F0F0F960B903262046082156
:1015600000F0EAF930B904262046102100F0E4F931
:101570000028D0D0204603F004FE85B23146204634
:1015800000F000FA04EB460887B21848B8F80C607F
:1015900003F0B2FE7119884204D3144803F0ACFE84
:1015A000801B85B2BD4200D93D462068A84200D2CA
:1015B00085B20E4803F09EFEA91988420BD20B4853
:1015C00003F098FEB04204D3084803F093FE801B5A
:1015D00000E0002085B2002D9DD02068401B2060D7
:1015E000B8F80C002844A8F80C0094E7A073042471
:1015F000FEE770472DE9F04104463F4803F0BFFD88
:10160000064694F8C6001A21401C84F8C600D4F897
:10161000522000251072D4F852008170D4F8560080
:1016200094F8C2704178C278837890F804C011446D
:1016300090F800E003EB0C0211447745C9B23DD0AD
:10164000027B492A3AD1427B502A37D1827B992AA0
:1016500034D1C27B882A31D1407988422ED12046AC
:1016600084F8C2E000F000FBD4F87F100844C4F80E
:101670007F00204600F017FB94F8C510C90638D546
:1016800094F8C01001F1010184F8C010D0B1D4F871
:1016900087100844C4F88700D4F88B202168801A8A
:1016A000401C7043884207D840F2DC50C4F88F00D9
:1016B0000021C4F8931005E0012503E094F8C5006B
:1016C000C00616D5D4F88F000023D4F893101A461C
:1016D0001B1A8A4108DA401EC4F88F0041F1FF311D
:1016E000C4F89310002D04D02046BDE8F04100F06E
:1016F00055BFBDE8F0810000A07304240449002018
:1017000010B5086000F01EF8BDE8104000F002B807
:101710001801042410B5FEF7E1FD10210446044829
:1017200008F001FC2046BDE81040FEF7DBBD0000DC
:10173000948B0424FEE70000014908607047000014
:10174000180104240E4810B50068C10705D08007B1
:1017500003D50B490B48091F08600120FFF79CFDCA
:10176000094A00230949146844F0807414604B60EE
:101770000A6842F001020A60BDE81040FFF7DCBFD2
:10178000B41F00E055CEACC5FCED00E0001000E059
:101790000148406870470000001000E008B50422CE
:1017A0006946FC200AF008FA06480099814207D0F1
:1017B000042269460090FC200CF0CAF8012008BD04
:1017C000002008BD785634122DE9F05FDFF85CC1C7
:1017D00004465748BCF80C30BCF8D480BCF89C11C7
:1017E000BCF864624344BCF80E20BCF8D6500E44EA
:1017F000BCF89E713344BCF866821544BCF81010E6
:10180000BCF8D8204744BCF8A0613D44BCF86882CD
:101810000A44BCF81210BCF8DA70B044BCF8A261FB
:1018200042443944BCF86A72BCF82C833744BCF893
:101830002E633944BCF830734344BCF832833544DA
:10184000BCF8F4633A44BCF8F6734144BCF8F8833E
:101850003344BCF8FA633D44BCF8BC744244BCF861
:10186000BE843144BCF8C0641F44BCF8C234454453
:10187000BCF884853244BCF886651944BCF88835C8
:101880004744BCF88A853544D0E900C61A44D0E9FB
:101890000230414407EB0C092E44D7180D18254897
:1018A00003F07AFCB4F80EB00146B4F810E04FF043
:1018B000030CB4F812A0A6EB0B02A7EB0E00A6894E
:1018C000A5EB0A056B1802EB00089844B8FBFCFC7A
:1018D000A9EB0607BC4514D307EB00084FF0030C37
:1018E0009844B8FBFCF890450BD33A441344B3FB3F
:1018F000FCF3834205D308441044B0FBFCF0A8423B
:1019000002D20020BDE8F09FA18A06EB0B020EEB8D
:101910000A00236802441144194421600020A08277
:1019200060822082E081A0810120EBE70000803806
:10193000E8760424A073042470B5D0F87A500446E5
:101940000D400AD0FEF7CAFCD4F87A10A943C4F8B7
:101950007A10FEF7C7FC012070BD002070BDD0F8E2
:101960008320D0F87F108A1A01D0C0F88310104667
:101970007047D0F84A00810501D4C00700D001208B
:10198000704700002DE9F04F8B46AD490446142006
:1019900091B00988B1FBF0F200FB121000EBC0011E
:1019A00001EB0010A74901EB8000A749098803F06B
:1019B0005EFC06464FF496700F90A4480590A4482C
:1019C00003F0EAFBA349002208920E920A680C92E7
:1019D0004B680B938F680A97C968BE4602910691BF
:1019E000DDF838C0DFF870820CF101010CEBCC0798
:1019F00007EB0C1CC9B208EBCC070829CDE90D7127
:101A0000B7F80CA0B7F80EC0B7F8108052440D9F7D
:101A100063440699C644B7F81290BF8A49440691B8
:101A2000089939440891DBD3DFF830820327DFF8C7
:101A300030920121BBF1050F7BD2DFE80BF0033EB2
:101A40007BB3F00003EB0E05069B4FF0640C0344E0
:101A50002B440F9D03FB0CF3B3FBF5F39A4203D227
:101A60009D1A059A954201D3002501E0002D60D111
:101A700098F80020002A5CD03207FCD006F00F0254
:101A80000D2A56D816F0300F53D1B0FBF7F0A289CB
:101A900090424ED2E089904205D8238A934202D8E0
:101AA000638A934245D9642805D9208A642802D9DB
:101AB000608A64283DD80C98ACE002EB0E05069ACB
:101AC0004FF0640C02442A440F9D02FB0CF2B2FB5F
:101AD000F5F2934203D2D51A059A954201D3002517
:101AE00001E0002D25D198F80020002A21D03207EE
:101AF0001FD006F00F020D2A1BD8C6F30112012ACF
:101B000017D1B0FBF7F0E289904212D2A08990423F
:101B100005D8238A934202D8638A934209D964285C
:101B200005D9208A642802D9608A642801D80B98D4
:101B300070E049E01344069A642502441A440F9B5E
:101B40006A43B2FBF3F2964504D2A2EB0E05059A66
:101B5000954201D3002500E0B5BB98F800209AB368
:101B6000320768D006F00F020D2A64D8C6F30112BE
:101B7000022A60D1B0FBF7F0228A90425BD2A089A2
:101B8000904205D8E389934202D8638A934252D99E
:101B9000642805D9E089642802D9608A64284AD873
:101BA0000A9837E013440EEB000564222B4453439C
:101BB0000F9AB3FBF2F2069B934203D2D51A059A11
:101BC000954202D3002501E027E035BB98F80020BC
:101BD0001AB332072FD006F00F020D2A2BD8C6F306
:101BE0000112032A27D1B0FBF7F0628A904222D279
:101BF000A089904205D8E389934202D8238A934270
:101C000019D9642805D9E089642802D9208A642872
:101C100011D8029808B189F800100CE0FFE7114ACA
:101C20006421484312690899B0FBF2F0814201D364
:101C3000002500E0451A11B02846BDE8F08F0000ED
:101C40006C000424087704246E0004247838010012
:101C5000A0730424E87604240000803814000424CF
:101C60001500042400E50008D0F856300022597809
:101C7000DB78994215D190F8BC30962B05D280F8CC
:101C8000BE105B1C80F8BC300BE090F8BE308B427D
:101C900007D000BFA1EB030201D902F5807280F8E2
:101CA000BE101046704710B5D0F85620002391782A
:101CB000127991420FD190F8BF208A420BD090F850
:101CC000BC40962C07D38A42A1EB020301D903F54D
:101CD000807380F8BF10184610BD00000C480D4AF4
:101CE000017889B10C4902230370087800F00F01D4
:101CF0000E2901D3042101E0C0F3011100F03F00DF
:101D000003EB011111707047002010707047000044
:101D100085000424860004248400042430B505468C
:101D200090F8C7009BB0401C85F8C70014218DF8BF
:101D300000100024134964220DF10100FEF724FB7A
:101D400000206946401CC0B211F8012B65282244CE
:101D500094B2F7D3ADF865400121D5F85240672021
:101D600095F8C720A83562700246217369466073F2
:101D700004F10E00FEF708FBE87F84F87F001BB03B
:101D800030BD0000D87E042430B5054690F8C70069
:101D90009BB0401C85F8C70015218DF80010002469
:101DA000134964220DF10100FEF7EEFA00206946A6
:101DB000401CC0B211F8012B6528224494B2F7D31D
:101DC000ADF865400121D5F85240672095F8C7204D
:101DD000A8356270024621736946607304F10E00F3
:101DE000FEF7D2FAE87F84F87F001BB030BD000018
:101DF0003C7F04242DE9F047044690F8C70098B0D2
:101E00009246401C84F8C70000254E488DF800100B
:101E100000788DF801004C480088ADF802004B486E
:101E20000088ADF804004A480068CDF80600FFF7C6
:101E300055FF8DF80A00474800788DF80B00208C7C
:101E4000ADF80C00444803F0A7F9CDF80E000020CF
:101E50002168814607916A466168089140493F4E72
:101E60000988ADF812103F490988ADF814103E49B1
:101E70000988ADF816103D490988ADF818103C499D
:101E80000988ADF81A1000BF04EB400102EB4008CE
:101E900002EB8003B1F80CC00021A8F824C0C3F8FD
:101EA0002E9000BF01EBC10CD3F82E7001F1010898
:101EB0000CEB011106EBC10C0CEB400C08F0FF0120
:101EC0000829BCF80CC06744C3F82E70EAD3401C44
:101ED000C0B20528D8D3274A00208DF842A0694611
:101EE0001268CDF84320244A1268CDF84720234ACF
:101EF0001268CDF84B20224A1268CDF84F20A26814
:101F0000CDF85320401C11F8012BC0B22A4495B2E1
:101F10005728F7D3ADF857500121D4F85250592023
:101F200094F8C720A8346A7002462973694668731A
:101F300005F10E00FEF728FAE07F85F87F0018B063
:101F4000BDE8F0876B0004247000042472000424B0
:101F50007400042486000424A07304240000803844
:101F6000880004248A0004248C0004248E000424A5
:101F70009000042494000424800004247C000424A1
:101F8000780004242DE9F047044690F8C70098B083
:101F90009246401C84F8C70000254E488DF800107A
:101FA00000788DF801004C480088ADF802004B48DD
:101FB0000088ADF804004A480068CDF8060049489A
:101FC00000788DF80A00484800788DF80B00208CC6
:101FD000ADF80C00454803F0DFF8CDF80E00002006
:101FE0002168814607916A46616808914149404EDF
:101FF0000988ADF8121040490988ADF814103F491E
:102000000988ADF816103E490988ADF818103D4909
:102010000988ADF81A1000BF04EB400102EB40083C
:1020200002EB8003B1F80CC00021A8F824C0C3F86B
:102030002E9000BF01EBC10CD3F82E7001F1010806
:102040000CEB011106EBC10C0CEB400C08F0FF018E
:102050000829BCF80CC06744C3F82E70EAD3401CB2
:10206000C0B20528D8D3284A00208DF842A069467E
:102070001268CDF84320254A1268CDF84720244A3B
:102080001268CDF84B20234A1268CDF84F20A26881
:10209000CDF85320401C11F8012BC0B22A4495B250
:1020A0005728F7D3ADF857500121D4F85250592092
:1020B00094F8C720A8346A70024629736946687389
:1020C00005F10E00FEF760F9E07F85F87F0018B09B
:1020D000BDE8F0876B00042470000424720004241F
:1020E000740004248400042486000424A0730424BF
:1020F00000008038880004248A0004248C00042412
:102100008E000424900004249400042480000424FD
:102110007C000424780004242DE9F84300EBC0037C
:102120002A4903EB00132A4A002501EBC30402EB02
:10213000C01704F15A00D4F856100A7B492A02D17C
:102140004A7B502A10D02021FEF737F92149002080
:1021500051F8202047F82020401C2028F8D300BF49
:10216000C4F87A50BDE8F8830A7894F87E309A4231
:1021700026D084F87E200646CA884FF00109097AE5
:10218000CDF8005061F31F4242EA016857F825304C
:1021900009FA05F101EA08016A463046984747F80E
:1021A00025006D1C761C202DF0D354F87A0F009971
:1021B000084320600029D5D007A00CF011F9D1E721
:1021C000044980223846FEF7DFF8C9E7000080386E
:1021D000C07F042480E400087474253038780A0035
:1021E0000021024630B5084602EB4103491C05298F
:1021F0009B891844F8D300280AD000214FEA010433
:1022000002EB4103491C05299D89DD829C81F7D39E
:1022100030BD00002DE9F05FDFF830A300284FF457
:10222000A0794FF4806B7DD0C94964230125DFF884
:1022300024C34FF47A72DFF82083002442F210772F
:102240000B8005264B8010208D80CD80CA604C7499
:10225000C1F813C04FF00A0CC1F8178042F20F7892
:10226000A1F808C04FF01E0CA1F80A80C1F82A405E
:10227000C1F82E4081F829400C74CC8481F812C03A
:102280004CF2503CC1F81F70C1F846C0C1F84A205A
:10229000C1F83E70C1F84220C1F836204E22C1F884
:1022A0003A30C1F8324081F828600BF051FBAC495C
:1022B0004FF45E70A94A0860AA48026004224FF4F5
:1022C00086700BF045FBA74904224FF488700BF091
:1022D0003FFBA54A0020A449C2E900000822900162
:1022E0000BF036FBA1480422A24904600C60A2490D
:1022F0009F480860A1489D490460A148046090017E
:102300000BF026FB9B4904224FF482700BF020FB5C
:10231000994904224FF484700BF01AFB9948046029
:10232000446000E07FE004810A22974895490460F8
:10233000446004814FF490700BF00AFB92490A222A
:102340004FF498700BF004FB9048022103220570B3
:102350004170042182700A22C170014606714471E5
:102360008471C4710472447248460BF0F1FA00267D
:102370005F464FF4407B4FF450784FF4607A4FF44F
:10238000707906EBC60505EB061C704D002105EBC8
:10239000CC05042207EB86002C60C5F82240C5F866
:1023A0002640C5F82A40C5F82E40C5F8AC10C5F83F
:1023B000B010C5F8B410C5F8B81029460BF0C8FA2B
:1023C00004220BEB860005F122010BF0C1FA042276
:1023D00008EB860005F126010BF0BAFA04220AEB9D
:1023E000860005F12A010BF0B3FA042209EB8600FE
:1023F00005F12E010BF0ACFA4FF48860082200EBD7
:10240000C60005F1AC010BF0A3FA4FF49860082266
:1024100000EBC60005F1B4010BF09AFA761CF6B297
:10242000082EAED38DE04A494E22102009F0C4FB9D
:102430004B4904224FF4867009F0BEFB494904223F
:102440004FF4887009F0B8FB08224749900109F061
:10245000B3FB04224549900109F0AEFB4549042233
:102460004FF4827009F0A8FB434904224FF48470B2
:1024700009F0A2FB43490A224FF4907009F09CFB3B
:1024800041490A224FF4987009F096FB0A223F490D
:10249000500109F091FB002456464FF440785F4606
:1024A0004FF450794FF4607B4FF4707A04EBC40022
:1024B00000EB0410042206EBC00507EB840029465C
:1024C00009F07AFB042208EB840005F1220109F0EF
:1024D00073FB042209EB840005F1260109F06CFB73
:1024E00004220BEB840005F12A0109F065FB0422AC
:1024F0000AEB840005F12E0109F05EFB4FF48860C1
:10250000082200EBC40005F1AC0109F055FB4FF4C3
:102510009860082200EBC40005F1B40109F04CFBFF
:10252000641CE4B2082CC1D319494FF4A0724FF4D3
:10253000AA6009F041FB174960224FF4E06009F0FE
:102540003BFB154900200860BDE8F09F0000803883
:10255000A0730424A086010040420F0087D6120019
:102560001C00042420000424300004243800042427
:10257000189801013C000424400004244400042471
:10258000480004243C740424467404245074042435
:10259000A6750424E674042494000424D0F84A2088
:1025A00090F84E1022F40072C0F84A20D0F8520081
:1025B000114341727047000070B50E4C2068082826
:1025C00001D3002020600C4D00EBC00101EB001096
:1025D00005EBC000FFF70DF82068411C216000EBFF
:1025E000C00202EB001005EBC000BDE8704000F037
:1025F00005B8000008010424000080382DE9F05FD0
:10260000044602F083FEBB4E07004FF480694FF092
:1026100000054FF400782DD0B74802F0B0FD7843A4
:102620002168814201D8002100E0091A44F8021B08
:10263000D6E90021121A61EB0501C6E90021616AA1
:102640000844606225636563A563A41E204609F003
:1026500081FC2268494620460BF03AF9A549082238
:1026600040460BF075F9D4F826204FF450712046FF
:102670000BF02EF94FF4000720463946FFF75CF9BE
:1026800000284FF4001A4FF4800B7DD02168642994
:1026900001DB642008E00A2901DB0A2004E00129AB
:1026A00001DB012000E0002081422AD348B3C4F8B6
:1026B0003250091AC4F83650C4F83A5044F8021B94
:1026C000D6E90021121A61EB0501C6E90021E16A91
:1026D0000A18E262A41E4FF4707120460BF0F8F85D
:1026E0002268494620460BF0F3F88249082240460A
:1026F0000BF02EF9D4F84A0040F00100C4F84A006B
:1027000025E0D4F84A00012120F00100C4F84A0075
:102710002046FFF711F902212046FFF70DF90421A9
:102720002046FFF709F908212046FFF705F9102197
:102730002046FFF701F920465146FFF7FDF82046F5
:102740005946FFF7F9F820463946FFF7F5F82046D5
:10275000FFF705F9070027D0674802F00EFD784320
:10276000216801442160D6E9002112186941C6E9B7
:102770000021D4F822100844C4F8220022684946F7
:1027800020460BF0A5F800E009E05A49082240462F
:102790000BF0DEF8D4F822204FF44071A5E0D4F815
:1027A0004A0020F00100A9E74FF480712046FFF7AE
:1027B000C3F808B10A2015E020464146FFF7BCF8EF
:1027C00008B132200EE020464946FFF7B5F808B1BF
:1027D000642007E04FF400612046FFF7ADF820B118
:1027E0004FF4FA702084BDE8F09F4FF480512046EA
:1027F000FFF7A2F84FF47A7708B12784F3E7204671
:10280000FFF7B7F80028EED14FF400312046FFF76C
:1028100093F870B1384802F0B2FC2168884208D8B9
:10282000354802F0ACFC20B12046BDE8F05F08F06E
:1028300005BF20465146FFF77FF84FF4607A28B372
:102840002068400006F05EFC00BB2B4802F056FDFD
:10285000216801442160D6E9002112186941C6E9C6
:102860000021D4F82A100844C4F82A0022684946F6
:1028700020460BF02DF81F49082240460BF068F85F
:10288000D4F82A20514620460BF022F8204659461B
:10289000FFF752F80028A6D02068400006F032FC6E
:1028A0000028A0D1208C0A2801D20A2702E064283F
:1028B00000D26427206838442060D6E90010C91986
:1028C0006841C6E90010D4F82A0049463844C4F8E3
:1028D0002A00226820460AF0FBFF064908224046EB
:1028E0000BF036F8D4F82A2051462046BDE8F05FB8
:1028F0000AF0EEBF30000424A0730424704710B522
:10290000044649B10021FFF73DF80028D4F84E00F5
:1029100007D040F0010006E0D4F84E0020F01F0080
:102920003DE020F00100C4F84E0001212046FFF7F1
:1029300029F80028D4F84E0002D040F0020001E04F
:1029400020F00200C4F84E0002212046FFF71AF8DA
:102950000028D4F84E0002D040F0040001E020F03E
:102960000400C4F84E0003212046FFF70BF80028AE
:10297000D4F84E0002D040F0080001E020F008003A
:10298000C4F84E0004212046FEF7FCFF0028D4F8CE
:102990004E0002D040F0100001E020F01000C4F81A
:1029A0004E00D4F8521094F84E004872D4F85210E9
:1029B000B4F84E00000A8872D4F85210D4F84E00D1
:1029C000000CC87210BD7047F0B5B3F5804F05D04C
:1029D0006FF0704140F822100020F0BD91E83800FF
:1029E0008F898E6950F8221024013343054E44EA42
:1029F00005242343314043EA07430B4340F8223088
:102A0000EAE700000000F0CFF0B50A6850F8223085
:102A100023F0010340F822308C68082C2CD00026CB
:102A20004A68D1E903CE22434CEA060C01F11403B3
:102A300042EA0C0242EA0E0293E8F8501A4322439B
:102A40000C682A43D1E90C35324350F824603A43EC
:102A500042EA0C02DFF840C042EA0E028F6B1343D9
:102A60001D432F4326EA0C063E4340F824600A6BC0
:102A7000B2F5801F02D007E04026D1E70A684AB1CC
:102A8000026842F4801202600A681AB10268496B57
:102A90000A4302600020F0BD7FFB3F00F0B5D1E9A2
:102AA00001630C6800EB8202B1F80CE044EA061402
:102AB0000E7D4FEA032C104B0D8A4CEA0E4C44EA73
:102AC0000C045F0107EB066603EB05578D693C4379
:102AD00034432C4354600268D2020BD5098A426801
:102AE000446803EB015122F47002114324F4700393
:102AF0000B4343600020F0BD0000F0FF7047000072
:102B0000D0F84E2011B122F01F0114E01A490978C3
:102B100011F0300306D0102B24D0202B25D0302BE1
:102B20000BD125E0CB431B0719D001F00F010E2973
:102B300015D042F00101C0F84E10D0F8522090F8A4
:102B40004E105172D0F85220B0F84E10090A91720E
:102B5000D0F84E10D0F85200090CC172704742F004
:102B60001001E8E742F00201E5E742F00401E2E784
:102B700042F00801DFE7000084000424704770473A
:102B800029482DE9F041037803F00F010E2901D304
:102B9000042124E0C3F3011105290AD2DFE801F082
:102BA00003051B1D1F00214C00E0214C2288521CF4
:102BB0002280204F8046204E0024204A204D388815
:102BC000204F3B543378012B11D0022B09D02978A8
:102BD00069B111540CE01C4CE8E71C4CE6E71C4CB6
:102BE000E4E7022303EB01111154347000E01454A4
:102BF000184E1421306809F095F9174F14213868E0
:102C000009F00DF93068152109F08CF938681521A3
:102C100009F005F9114888F800402C700178491C2A
:102C20000170BDE8F08100008400042488000424C1
:102C30008A0004246E000424850004243C7F0424BC
:102C400086000424D87E04248C0004248E000424EE
:102C500090000424000104240401042492000424AC
:102C60000D480B2110B5006809F05CF90B480B21E9
:102C7000006809F0D4F80A480A4A0188491C89B258
:102C80000180642904D3642303800021117010BDE6
:102C90000120107010BD0000000104240401042470
:102CA0006E0004249200042400B590F83A108DB010
:102CB000002919D0C278002180F83A10012A13D1D6
:102CC0000279012A10D1C16208A1027068460AF097
:102CD0006DFE684606F060F9074A08A168460AF0EA
:102CE00065FE684606F058F90DB000BD7061676575
:102CF0002030FFFFFF00000050E5000874302E7404
:102D000078743D22257322FFFFFF00002DE9F04F6C
:102D1000002590F83A7093B02C46002FAA46A94699
:102D2000AB46CDE90F557CD0C178002680F83A60DB
:102D30000A2976D10179012974D0022971D19049EB
:102D400060229048FDF720FBDFF83482012600BFA7
:102D500008EB8607721D8CA17B6B02A80AF026FE89
:102D600002A806F019F9FB6806F1100286A102A874
:102D70000AF01CFE02A806F00FF9796B761C4D19BB
:102D800044F10004092EE3DB83A12A4602A823466E
:102D90000AF00CFE02A806F0FFF8D8F8042083A180
:102DA00002A844460AF002FE02A806F0F5F8A2685E
:102DB00082A102A80AF0FAFD02A806F0EDF8226846
:102DC00082A102A80AF0F2FD02A806F0E5F8834904
:102DD0005FF0000001EBC002D2F88030D2F88440EE
:102DE0009B1CC2F8803044F10004C2F88440136890
:102DF00054685B1C136044F10005556001EB8004CE
:102E0000401CD4F80021521CC4F800211028E1DB3A
:102E10000024724E06EBC405D5F88000D5F8841066
:102E200001E0A1E089E0CDE9000104F11A026CA102
:102E300002A80AF0BBFD02A806F0AEF8696804F12A
:102E40002B022868CDE9000165A102A80AF0AEFDB9
:102E500002A806F0A1F806EB8400119004F13C02F0
:102E600049A1D0F8003102A80AF0A0FD02A806F09E
:102E700093F829686426D5F804C00027D5F8802087
:102E8000A1FB06080CFB068601FB0761D5F8843020
:102E9000FDF73AFACDE9000104F14F0255A102A86D
:102EA0000AF084FD02A806F077F8D5F88030D5F84E
:102EB0008400109913EB0A0A2B6840EB0909686833
:102EC0005918109140EB0B0B1198641C102CD0F882
:102ED00000110F9808440F909BDB4BA1524602A8AB
:102EE0004B460AF063FD02A806F056F8109A4BA173
:102EF00002A85B460AF05AFD02A806F04DF80F9AA8
:102F00004BA102A80AF052FD02A806F045F85AEAC1
:102F100009002CD0109C6426002552464B46A4FB89
:102F200006070BFB067104FB0511FDF7EDF945A142
:102F3000024602A80AF03AFD1DE00121C6620170B6
:102F400045A102A80AF032FD02A806F025F8454A7C
:102F500045A102A80AF02AFD02A806F01DF846487D
:102F6000016841F4C061016013B0BDE8F08F43A176
:102F700002A80AF01BFD02A806F00EF8F4E7000014
:102F8000E6740424467504247425642E7478743D14
:102F900022257522FFFFFF0074352E7478743D22C0
:102FA000256C6C7522FFFFFF000000007431342E89
:102FB0007478743D22257522FFFFFF007431352E91
:102FC0007478743D22257522FFFFFF007431362E80
:102FD0007478743D22257522FFFFFF00A675042436
:102FE0007425642E7478743D22256C6C7522FFFF65
:102FF000FF0000007425642E7478743D22256C6CEB
:1030000075252522FFFFFF007439392E7478743D31
:1030100022256C6C7522FFFFFF00000074313030F8
:103020002E7478743D22256C6C7522FFFFFF000022
:10303000743130312E7478743D22257522FFFFFFE4
:1030400000000000743130322E7478743D22256CFB
:1030500075252522FFFFFF00706167652030FFFFA7
:10306000FF00000050E5000874302E7478743D2293
:10307000257322FFFFFF0000180004247431303252
:103080002E7478743D2230252522FFFFFF000000BA
:1030900010B5044690F83A008EB000281ED0E078B3
:1030A000002184F83A10022818D12079082817D076
:1030B000012813D0022811D1E16201200BA1207058
:1030C00068460AF073FC684605F066FF0A4A0BA1E1
:1030D00068460AF06BFC684605F05EFF0EB010BD56
:1030E000601D0BF05FF96062F8E7000070616765D2
:1030F0002030FFFFFF00000050E5000874302E7400
:1031000078743D22257322FFFFFF00002DE9F04374
:10311000044690F83A008DB0002828D0E0780027C7
:1031200084F83A70032822D120794FF47A768A4DB8
:103130004FF00F09DFF82482122818D2DFE800F0E0
:1031400017F9FE17091A2938475766778393A3B4EE
:10315000C6DB601D0BF026F9B042606206D97E48DE
:10316000AE8002F00AF87EA10246D2E0A8800DB03F
:10317000BDE8F083601D0BF015F9B042606206D91E
:103180007548EE8001F0FBFF79A10246C1E0E880BE
:10319000EDE7601D0BF006F9B042606206D96E489B
:1031A0002E8002F0ABF876A10246B2E02880DEE77E
:1031B000601D0BF0F7F8B042606206D966486E8079
:1031C00002F09EF872A10246A3E06880CFE7601D7E
:1031D0000BF0E8F84045606207D95F48C5F80C80FD
:1031E00001F0DAFF6EA1024693E0E860BFE7601DE0
:1031F0000BF0D8F8B042606206D957482E8102F031
:103200007BF86BA1024684E02881B0E7601D0BF0DB
:10321000C9F842F210716062884206D94E4869814D
:1032200002F068F866A1024673E068819FE7E88CC7
:103230006FF480714840E884C00501D564A200E0C5
:1032400064A265A165E0601D0BF0ACF8F028606237
:1032500007D9F020A874404802F02FF862A1024676
:1032600057E0A87483E7601D0BF09CF80C2860629F
:1032700007D90C206874384802F046F85FA102466E
:1032800047E0687473E7601D0BF08CF8404560629E
:1032900007D93148C5F8138001F06CFF5CA10246E4
:1032A00037E0C5F8130062E7601D0BF07BF85D495D
:1032B0006062884207D92848C5F8171001F0D4FF8A
:1032C00059A1024625E0C5F8170050E7601D0BF034
:1032D00069F8606248B110280AD985F828901E481C
:1032E00002F005F855A1024613E085F82870F6E7CC
:1032F00085F828003BE7601D0BF054F8606288B148
:10330000102812D985F82990134801F0EDFF421CCE
:103310004FA168460AF04AFB684605F03DFE26E7E5
:103320000CE006E085F82970EEE7401E85F82900DC
:103330001DE74C48016841F0010101600120E7628E
:1033400049A1207068460AF031FB684605F024FE6A
:10335000484A49A1DDE70000EE730424A08601007D
:1033600074332E7478743D22256C6422FFFFFF00B5
:1033700074342E7478743D22256C6422FFFFFF00A4
:1033800074352E7478743D22256C6422FFFFFF0093
:1033900074362E7478743D22256C6422FFFFFF0082
:1033A00074372E7478743D22256C6422FFFFFF0071
:1033B00074382E7478743D22256C6422FFFFFF0060
:1033C00074392E7478743D22256C6422FFFFFF004F
:1033D000BFAA0000B9D800007431302E7478743D53
:1033E00022257322FFFFFF007431312E7478743D63
:1033F00022256C6422FFFFFF000000007431322E92
:103400007478743D22256C6422FFFFFF00000000E9
:103410007431332E7478743D22256C6422FFFFFFD3
:103420000000000040420F007431342E7478743D67
:1034300022256C6422FFFFFF000000007431352E4E
:103440007478743D22256C6422FFFFFF00000000A9
:103450007431362E7478743D22256C6422FFFFFF90
:103460000000000018000424706167652030FFFF31
:10347000FF00000050E5000874302E7478743D227F
:10348000257322FFFFFF00001FB503A9009102ABC7
:1034900001AA0BA1FCF7ACFF03280FD101990B483F
:1034A000B1F5FA6F00D9018002994A1E0C2A00D2A8
:1034B000817003994A1E1F2A00D2C1701FBD0000EF
:1034C00025642D25642D256400000000630004247C
:1034D0002DE9F04F054690F83A008DB0002847D00E
:1034E000E878002785F83A70092841D128794FF407
:1034F000FA5B934C4FF00109162840F6B83641F2BA
:10350000883842F2107A33D2DFE800F0320B15220D
:103510003541556B7F93A7BDC8D3DEE9F7F2323250
:1035200032F187494E228748FCF72EFF8648026811
:1035300042F001020260EF6284A1684685F80090C3
:103540000AF034FA684605F027FD834A83A109E0B2
:10355000E08C80F04000E084400601D583A200E0CA
:1035600083A284A168460AF021FA684605F014FD9A
:103570000DB0BDE8F08F681D0AF014FF0A286862DC
:1035800000D90A20C4F832007EA10246EAE7681D8D
:103590000AF008FF4FF4FA716862884202D9C4F851
:1035A0003A1004E0322800D23220C4F83A00D4F8AD
:1035B0003A2078A1D6E7681D0AF0F4FE4FF47A713C
:1035C0006862884202D2C4F8361006E0B04202D9DE
:1035D000C4F8366001E0C4F8360072A1D4F8362091
:1035E000C0E7681D0AF0DEFEB042686202D2C4F88D
:1035F000426006E0404502D9C4F8428001E0C4F8C8
:1036000042006CA1D4F84220ACE7681D0AF0CAFE63
:103610004045686202D2C4F83E8006E0584502D9AF
:10362000C4F83EB001E0C4F83E0066A1D4F83E20E4
:1036300098E7681D0AF0B6FE5845686202D2C4F8E1
:103640004AB006E0504502D9C4F84AA001E0C4F8E7
:103650004A0060A1D4F84A2084E7681D0AF0A2FE5F
:103660005045686202D2C4F846A008E043F69821AB
:10367000884202D9C4F8461001E0C4F8460059A1B6
:10368000D4F846206EE7E08C80F00100E084C007AB
:1036900001D036A200E036A257A163E7E08C80F0AB
:1036A0000200E084800701D530A200E030A256A1DC
:1036B00058E7E08C80F00400E084400701D52BA29D
:1036C00000E02BA254A14DE7E08C80F00800E084DC
:1036D000000701D525A200E025A253A142E7E08C16
:1036E00080F01000E084C00604D520A203E01AE0B8
:1036F0000EE002E01EA250A134E7E08C80F0200032
:10370000E084800601D519A200E019A24EA129E7A4
:10371000E08C80F08000E084000601D513A200E078
:1037200013A24DA11EE7681D0AF03CFE64286862E2
:1037300000D96420C4F82E004BA1024612E7000015
:10374000EE730424A07304241800042470616765D8
:103750002030FFFFFF00000050E5000874302E7499
:1037600078743D22257322FFFFFF0000BFAA0000EE
:10377000B9D8000074332E7478743D22257322FF6B
:10378000FFFF000074342E7478743D22256C64228F
:10379000FFFFFF0074352E7478743D22256C64227F
:1037A000FFFFFF0074362E7478743D22256C64226E
:1037B000FFFFFF0074372E7478743D22256C64225D
:1037C000FFFFFF0074382E7478743D22256C64224C
:1037D000FFFFFF0074392E7478743D22256C64223B
:1037E000FFFFFF007431302E7478743D22256C6425
:1037F00022FFFFFF000000007431312E7478743D09
:1038000022257322FFFFFF007431322E7478743D3D
:1038100022257322FFFFFF007431332E7478743D2C
:1038200022257322FFFFFF007431342E7478743D1B
:1038300022257322FFFFFF007431352E7478743D0A
:1038400022257322FFFFFF007431362E7478743DF9
:1038500022257322FFFFFF007431372E7478743DE8
:1038600022257322FFFFFF007431382E7478743DD7
:1038700022257522FFFFFF0000B500228DB0C26235
:103880000121017008A168460AF090F8684605F029
:1038900083FB084A08A168460AF088F8684605F0E4
:1038A0007BFB0DB000BD0000706167652030FFFF3D
:1038B000FF00000050E5000874302E7478743D223B
:1038C000257322FFFFFF00002DE9F04F044690F81A
:1038D0003A009FB000287AD0E178002784F83A7047
:1038E000062974D12079012812D0022870D004282A
:1038F000F7D101202070FCA102A80AF057F802A815
:1039000005F04AFBFB4AFCA102A80AF04FF8CEE101
:10391000A278FD4DFD4E042ADFF8F4837ED008DC4A
:10392000012A7CD0032ADCD1626A33689A4277D0BC
:10393000C3E1092A75D00A2AD3D1F64B626A1B6803
:103940009A42CED161700722A070F349F3482270E9
:103950006022FCF719FD4FF00008CDF84080F0A17F
:10396000454602A84446C146C346C2460AF01EF870
:1039700002A805F011FB0126E848721D00EB86073E
:10398000EAA102A87B6B0AF011F802A805F004FB7B
:10399000FB6806F11002E5A102A80AF007F802A8E8
:1039A00005F0FAFA796B761C11EB080845F1000076
:1039B000092E0546E0DBE2A14246034602A809F0D3
:1039C000F5FF02A805F0E8FAD44D6A6801E071E15C
:1039D000FEE3E0A102A809F0E9FF02A805F0DCFA85
:1039E000AA68E0A102A809F0E1FF02A805F0D4FA54
:1039F0002A68E0A102A809F0D9FF02A805F0CCFAD4
:103A00000025E04F05F11A0207EBC5060F96D6F820
:103A10008410D6F88000CDE9000103E094E242E092
:103A20004DE1B8E38036D8A102A809F0BFFF02A893
:103A300005F0B2FA56F87C1C05F12B0256F8800C02
:103A4000CDE90001D0A102A809F0B0FF02A805F05D
:103A5000A3FA07EB8500119005F13C02CFA1D0F845
:103A6000003102A809F0A2FF02A805F095FA326819
:103A7000736852EA03007DD00F984FF0640C002762
:103A800001684668A1FB0C0806FB0C8601FB076178
:103A9000FCF73AFCCDE9000105F14F02C3A102A8F1
:103AA00009F084FFB5E3606A296888427DD1382136
:103AB00010A8FCF782FCE178022220796170C0A195
:103AC0002270A07002A809F071FF02A805F064FA44
:103AD000DFF8F882002600BF06EBC60000EB0611F7
:103AE000C6EBC60408EBC10504F10902B8A155F8FC
:103AF000223F02A809F05AFF02A805F04DFA2968F2
:103B0000DDE910205118784104F10A02CDE91010C6
:103B10006B68AFA102A809F049FF02A805F03CFAC2
:103B20006968DDE912205118784104F10B02CDE9F2
:103B30001210AB68A6A102A809F038FF02A805F090
:103B40002BFAA868DDE914211018794104F10C0260
:103B5000CDE91401EB689EA102A809F027FF02A895
:103B600005F01AFAE968DDE9162051187841CDE927
:103B7000161000E04EE3EB6904F10D0294A102A8D7
:103B800009F014FF02A805F007FAE969DDE9182039
:103B90005118784104F10E02CDE918102B6A8CA15E
:103BA00002A809F003FF02A800E086E005F0F4F99E
:103BB000296ADDE91A205118784104F10F02CDE994
:103BC0001A102868A96808446968401AE968451A03
:103BD0007FA12B4602A809F0E9FE02A805F0DCF956
:103BE000DDE91C2006F10106521940EBE570F6B242
:103BF000082ECDE91C20FFF46FAFDDE91001C6EB04
:103C0000C60404F10902CDE9000176A102A809F079
:103C1000CDFE02A805F0C0F9DDE9120104F10A02A7
:103C2000CDE900016FA102A809F0C0FE02A805F0CD
:103C3000B3F9DDE9140104F10B02CDE9000169A13A
:103C400002A809F0B3FE02A805F0A6F9DDE9160105
:103C500004F10C02CDE9000162A102A809F0A6FE60
:103C600002A805F099F9DDE9180104F10D02CDE98A
:103C700000015CA102A809F099FE02A805F08CF9E8
:103C8000DDE91A0104F10E02CDE9000155A102A8F7
:103C900009F08CFE02A805F07FF9DDE91C0104F1B2
:103CA0000F02CDE900014FA102A809F07FFE02A892
:103CB00005F072F91FB0BDE8F08F4FA16AE26170A4
:103CC0000422A0705249124822704E22FCF75CFB7D
:103CD00050A102A809F06AFE02A805F05DF90C489F
:103CE00001F04BFA02469BE0706167652030FFFFF0
:103CF000FF00000050E5000874302E7478743D22F7
:103D0000257322FFFFFF0000380004243C00042438
:103D1000EE73042448000424E67404244675042445
:103D200070616765203130FFFFFF00007425642E4D
:103D30007478743D22256C7522FFFFFF000000009F
:103D400074352E7478743D22256C6C7522FFFFFF4C
:103D5000000000007431342E7478743D22257522E1
:103D6000FFFFFF007431352E7478743D22257522D3
:103D7000FFFFFF007431362E7478743D22257522C2
:103D8000FFFFFF00A67504247425642E7478743D2B
:103D900022256C6C7522FFFFFF0000007425642E45
:103DA0007478743D22257522FFFFFF007425642E70
:103DB0007478743D22256C6C75252522FFFFFF0069
:103DC000706167652031FFFFFF0000000000803850
:103DD0007425642E7478743D22256C6422FFFFFFE5
:103DE000000000007425642E7478743D22256C6CEC
:103DF0006422FFFFFF00000074322E7478743D22AD
:103E0000C3DCC2EBB4EDCEF3A3A122FFFFFF0000A1
:103E1000A0730424706167652033FFFFFF0000007A
:103E2000FDA102A809F0C2FD02A805F0B5F8FE4800
:103E300001F0A5F9FDA1024602A809F0B7FD02A80C
:103E400005F0AAF8F84801F059FAFCA1024602A8C8
:103E500009F0ACFD02A805F09FF8F34801F050FA14
:103E6000FAA1024602A809F0A1FD02A805F094F803
:103E7000ED4801F091F9F9A1024602A809F096FD7A
:103E800002A805F089F8E84801F036FAF7A10246E1
:103E900002A809F08BFD02A805F07EF8E24801F0C7
:103EA00029FAF6A1024602A809F080FD02A805F051
:103EB00073F8B8F82600C00501D5F4A200E0F4A21A
:103EC000F4A102A809F072FD02A805F065F8D64831
:103ED00001F0F3F9F3A1024602A809F067FD02A878
:103EE00005F05AF8D04801F00FFAF3A1024602A8F3
:103EF00009F05CFD02A805F04FF8CB4801F03AF953
:103F0000F2A1024602A809F051FD02A805F044F80A
:103F1000C54801F0A9F9F2A1024602A809F046FD40
:103F200002A805F039F8C04801F0E1F9F1A1024614
:103F300002A809F03BFD02A805F02EF8BA4801F0EE
:103F4000D3F9421CF0A1DFE4DFF8D0934FF0050A6B
:103F5000606ADFF8CCB3DFF8CC83D9F80010884270
:103F60007FD1F1A102A809F021FD02A805F014F803
:103F7000E17861702179A17084F800A02763F1488D
:103F8000676307F0EFFDF0484446CBF80070CBF8CC
:103F90000470ABF80870076047600781E948016862
:103FA000C8F80010E9A14068C8F8040002A809F0A8
:103FB000FDFC02A804F0F0FFE748E8A1026802A8AF
:103FC00009F0F4FC02A804F0E7FFE84892A10268B7
:103FD00002A809F0EBFC02A804F0DEFFE44AE5A128
:103FE00002A809F0E3FC02A804F0D6FFE54AE6A126
:103FF00002A809F0DBFC02A804F0CEFFE078E6A1FD
:10400000009002A8A378228809F0D0FC02A804F04E
:10401000C3FFA079E7A1009002A86379227909F093
:10402000C5FC02A804F0B8FF2A688CA102A809F018
:10403000BDFC02A804F0B0FF32688CA102A809F010
:10404000B5FC02A804F0A8FFD9F800208BA102A8B3
:1040500009F0ACFC02A804F09FFF00E001E0DCA244
:1040600082E0DE4988427FF463ACDDA102A809F05A
:104070009DFC02A804F090FFE17861702179A170A5
:1040800084F800A02763B0486763CBF80070CBF8D2
:104090000470ABF80870076047600781A9480168A1
:1040A000C8F80010A9A14068C8F8040002A809F0E7
:1040B0007DFC02A804F070FFA748A8A1026802A82E
:1040C00009F074FC02A804F067FFA84852A1026836
:1040D00002A809F06BFC02A804F05EFFA44AA5A1A7
:1040E00002A809F063FC02A804F056FFA54AA6A1A5
:1040F00002A809F05BFC02A804F04EFF98F8030048
:10410000A5A1009002A898F80230B8F8002009F0A4
:104110004DFC02A804F040FF98F80600A5A100900D
:1041200002A898F8053098F8042009F03FFC02A88E
:1041300004F032FF2A6849A102A809F037FC02A85E
:1041400004F02AFF326849A102A809F02FFC02A856
:1041500004F022FFD9F8002048A102A809F026FCAB
:1041600002A804F019FFA26AA4A102A809F01EFC8B
:1041700002A804F011FFA6A102A809F017FC02A8EA
:1041800004F00AFFA6A102A809F010FC02A804F09E
:1041900003FFA7A17AE2AA4B626A1B689A427FF4E6
:1041A0008CAD61700622A070A6491F4822704E2275
:1041B000FCF7EAF8A4A102A809F0F8FB02A804F0B1
:1041C000EBFE98F826004446400602D52FA201E0F7
:1041D0004BE22FA29FA102A809F0E8FB02A804F07D
:1041E000DBFE114801F0AEF810A1024602A809F06A
:1041F000DDFB02A804F0D0FE0B4801F06FF80FA120
:10420000024602A809F0D2FB02A804F0C5FE064847
:1042100028E1DEE1D7E1000074332E7478743D228A
:10422000256C6422FFFFFF00EE73042474342E74A7
:1042300078743D22256C6422FFFFFF0074352E74D4
:1042400078743D22256C6422FFFFFF0074362E74C3
:1042500078743D22256C6422FFFFFF0074372E74B2
:1042600078743D22256C6422FFFFFF0074382E74A1
:1042700078743D22256C6422FFFFFF0074392E7490
:1042800078743D22256C6422FFFFFF00BFAA000066
:10429000B9D800007431302E7478743D2225732211
:1042A000FFFFFF007431312E7478743D22256C6459
:1042B00022FFFFFF000000007431322E7478743D3D
:1042C00022256C6422FFFFFF000000007431332EB2
:1042D0007478743D22256C6422FFFFFF000000000B
:1042E0007431342E7478743D22256C6422FFFFFFF4
:1042F000000000007431352E7478743D22256C6402
:1043000022FFFFFF000000007431362E7478743DE8
:1043100022256C6422FFFFFF0000000040000424FF
:104320005A7404246300042473797374656D636F95
:104330006E6669672E7661302E76616C3D30FFFFC8
:10434000FF0000005B00042464740424706167654E
:104350002034FFFFFF0000001C00042474322E7480
:1043600078743D22256C6422FFFFFF0020000424A6
:104370003C74042474342E7478743D22257322FF17
:10438000FFFF00004674042474352E7478743D22B7
:10439000257322FFFFFF000074362E7478743D22CF
:1043A000253034642D253032642D2530326422FFCF
:1043B000FFFF00007431352E7478743D22253032B1
:1043C000642E253032642E2530326422FFFFFF0038
:1043D0003839353435363233000000004E61BC00C8
:1043E00073797374656D636F6E6669672E7661307D
:1043F0002E76616C3D31FFFFFF0000007431302EDE
:104400007478743D22256C6422FFFFFF00000000D9
:104410007431312E7478743D2222FFFFFF000000BA
:104420007431322E7478743D2222FFFFFF000000A9
:104430007431332E7478743D2222FFFFFF00000098
:1044400044000424A0730424706167652039FFFFD1
:10445000FF00000074332E7478743D22257322FF10
:10446000FFFF000000F031FF0246AFF2202102A85A
:1044700009F09CFA02A804F08FFD894800F031FF92
:104480000246AFF2282102A809F090FA02A804F02F
:1044900083FD834800F01CFF0246AFF2302102A8E2
:1044A00009F084FA02A804F077FD7D4800F013FFBC
:1044B0000246AFF2382102A809F078FA02A804F007
:1044C0006BFD774800F0FEFE0246AFF2D00102A875
:1044D00009F06CFA02A804F05FFD94F82600C0070A
:1044E00002D0AFF2582201E0AFF25C226DA102A827
:1044F00009F05CFA02A804F04FFD94F8260040078A
:1045000002D5AFF2782201E0AFF27C2269A102A8C5
:1045100009F04CFA02A804F03FFD94F82600800749
:1045200002D5AFF2982201E0AFF29C2265A102A869
:1045300009F03CFA02A804F02FFD94F826000007C9
:1045400002D5AFF2B82201E0AFF2BC2261A102A80D
:1045500009F02CFA02A804F01FFD94F82600C0060A
:1045600002D5AFF2D82201E0AFF2DC225DA102A8B1
:1045700009F01CFA02A804F00FFD94F8260080064A
:1045800002D5AFF2F82201E0AFF2FC2259A102A855
:1045900009F00CFA02A804F0FFFC94F826000006CB
:1045A00002D5AFF2183201E0AFF21C3255A102A8D9
:1045B00009F0FCF902A804F0EFFC394800F07FFE96
:1045C00054A10246BFE405F14F0257A102A809F029
:1045D000EDF902A804F0E0FC0F990F98109BD1F8B8
:1045E0008020D1F8841012EB090607686141119C04
:1045F000406817EB0B0BB14640EB0A0AD4F80041B8
:104600006D1C102D23440C461093FFF6FAA902A846
:1046100032460B4649A109F0C9F902A804F0BCFCD6
:104620004BA15A4602A8534609F0C0F902A804F06B
:10463000B3FC109A4BA102A809F0B8F902A804F043
:10464000ABFC59EA04000ED06427234600264A46F4
:10465000ABFB07040AFB07440BFB0641FBF754FEC8
:1046600045A102466FE449A110E0601D09F09AFEE1
:10467000A1786062012908D003290CD004290CD04C
:1046800009297FF417AB46A100E04CA102A809F06C
:104690008DF9FFF70CBB50A1F8E756A1F6E7000033
:1046A000EE7304247431312E7478743D2225732204
:1046B000FFFFFF007431322E7478743D222573227F
:1046C000FFFFFF007431332E7478743D222573226E
:1046D000FFFFFF007431342E7478743D222573225D
:1046E000FFFFFF007431352E7478743D222573224C
:1046F000FFFFFF007431362E7478743D222573223B
:10470000FFFFFF007431372E7478743D2225732229
:10471000FFFFFF007431382E7478743D22256C64DD
:1047200022FFFFFF000000007425642E7478743DA2
:104730002230252522FFFFFF000000007439392EAA
:104740007478743D22256C6C7522FFFFFF00000019
:10475000743130302E7478743D22256C6C7522FFD4
:10476000FFFF0000743130312E7478743D222575BE
:1047700022FFFFFF00000000743130322E74787485
:104780003D22256C75252522FFFFFF007431303254
:104790002E7478743D2230252522FFFFFF00000093
:1047A00074302E7478743D22CAE4C8EBB9A6C4DC18
:1047B000C3DCC2EB22FFFFFF0000000074302E7448
:1047C00078743D22CAE4C8EBB2E9D5CBC3DCC2EBB6
:1047D00022FFFFFF0000000074302E7478743D2229
:1047E000CAE4C8EBB2CECAFDC3DCC2EB22FFFFFFB6
:1047F0000000000074302E7478743D22CAE4C8EBC7
:10480000CFB5CDB3C3DCC2EB22FFFFFF0000000039
:1048100030B5044690F83A008FB0002879D0E0789F
:10482000002584F83A50002873D1962084F83C0083
:104830008DA102A809F0BAF802A804F0ADFB207916
:1048400009210B2865D2DFE800F08D0614506E7C3C
:104850008D8D8D94A200E278A07002A8217085A1B0
:104860006270656209F0A2F802A804F095FB84A1C9
:1048700048E0E27803216270A07002A8217087A14D
:1048800009F094F802A804F087FB874887A1026822
:1048900002A809F08BF802A804F07EFB874888A1E3
:1048A000026802A809F082F802A804F075FBA26A67
:1048B00087A102A809F07AF802A804F06DFB8848E5
:1048C00088A1D0E9002302A809F070F802A804F03A
:1048D00063FB894889A1D0E9002302A809F066F8A2
:1048E00002A804F059FB8AA136E0E278A07002A881
:1048F000217060A16270656209F058F802A804F0A6
:104900004BFB87A102A809F051F802A804F044FB70
:1049100000E027E089A102A809F048F802A804F005
:104920003BFB8AA118E0E278A07002A8217051A197
:104930006270656209F03AF802A804F02DFB87A1C5
:10494000E0E78D4B012208211A70E2786270A070B6
:1049500021708AA184F8385002A809F027F802A82B
:1049600004F01AFB94F83C0000282AD001281CD03F
:1049700022E0E278A07002A821703EA16270656218
:1049800009F014F802A804F007FB7FA1BAE7E27867
:10499000A07002A8217037A16270656209F006F864
:1049A00002A804F0F9FA7FA1ACE785A102A808F0FB
:1049B000FDFF02A804F0F0FA94F83C00401E84F8D1
:1049C0003C0094F83B0010B1401E84F83B007F4847
:1049D000E16A0068814203D194F83B10002930D18C
:1049E0001921E06210F0FF0F84F83B102BD0C0B209
:1049F00010281BD008DC01280DD002280DD0042877
:104A000010D008281AD10FE0202811D0402811D04A
:104A1000802813D110E06EA100E074A102A808F074
:104A2000C5FF0BE078A1F9E77EA1F7E784A1F5E7E0
:104A300089A1F3E78EA1F1E793A1EFE702A804F0C3
:104A4000ABFA0FB030BD9649964809780078CDE9A9
:104A50000001954896A103789448027802A8521C58
:104A600008F0A4FFEAE7000064696D3D313030FFD3
:104A7000FFFF0000706167652036FFFFFF00000048
:104A800074302E7478743D22CAE4C8EBB2E9D5CBF9
:104A9000C3DCC2EB22FFFFFF00000000706167650E
:104AA0002032FFFFFF0000001C00042474322E742B
:104AB00078743D22256C6422FFFFFF00200004244F
:104AC00074332E7478743D22256C6422FFFFFF003E
:104AD00074342E7478743D22256C6422FFFFFF002D
:104AE0002800042474352E7478743D22256C6C647F
:104AF00022FFFFFF000000003000042474362E74F3
:104B000078743D22256C6C6422FFFFFF00000000DA
:104B100074372E7478743D2222FFFFFF00000000DE
:104B200074302E7478743D22CAE4C8EBB2CECAFD4C
:104B3000C3DCC2EB22FFFFFF0000000074312E74C3
:104B400078743D2222FFFFFF0000000074322E74B3
:104B500078743D2222FFFFFF0000000074302E74A5
:104B600078743D22CAE4C8EBCFB5CDB3C3DCC2EB49
:104B700022FFFFFF000000005A00042470616765F7
:104B80002035FFFFFF00000074302E7478743D2242
:104B9000CAE4C8EBB9A6C4DCC3DCC2EB22FFFFFF4A
:104BA0000000000074302E7478743D22CAE4C8EB13
:104BB000B2E9D1AFC3DCC2EB22FFFFFF000000006F
:104BC00064696D3D3230FFFFFF0000009400042453
:104BD00074322E7478743D22BBFAD0BEB6A5B8CB21
:104BE000B9CAD5CF2122FFFFFF00000074322E7416
:104BF00078743D22BBFAD0BEC3B1D7D3B9CAD5CFE2
:104C00002122FFFFFF00000074322E7478743D22D1
:104C1000BBFAD0BEB7ADC7F2B9CAD5CF2122FFFFCC
:104C2000FF00000074322E7478743D22BBFAD0BEAF
:104C3000C2E4C7F2B9CAD5CF2122FFFFFF000000AE
:104C400074322E7478743D22D6D0D0C4C5CCB9CA83
:104C5000D5CF2122FFFFFF0074322E7478743D22DD
:104C6000BBFAD0BECEB4C1AABDD32122FFFFFF0044
:104C700074322E7478743D22C7F2CEBBB9CAD5CF38
:104C80002122FFFFFF00000074322E7478743D2251
:104C9000C3C5BFD8B9CAD5CF2122FFFFFF0000008E
:104CA00086000424840004246B000424920004245D
:104CB00074322E7478743D2225642D25642D2530A0
:104CC00032782D2530327822FFFFFF0070B52D4D50
:104CD0000446286890F83500B0B1FBF7FFFA0646A5
:104CE00028680078E07029684878891C2071601D68
:104CF000FBF775FB012184F83A102968002081F840
:104D000035003046FBF7EEFA20780B2834D2DFE886
:104D100000F033060B101A1F292E241538002046E8
:104D2000BDE87040FFF774BD2046BDE87040FDF758
:104D3000BBBF2046BDE87040FEF7AAB92046BDE8DB
:104D40007040FEF7C1BD2046BDE87040FEF7DEB9F9
:104D50002046BDE8704000F0C3B82046BDE8704072
:104D600000F012B82046BDE87040FEF7B1BB204607
:104D7000BDE87040FDF7CABF2046BDE87040FEF7B1
:104D80007BBD70BDD4000424F0B590F83A108DB00E
:104D9000002939D0C178002280F83A20052933D182
:104DA000017901262B4D4C1E092C16D82A4F05F1EE
:104DB00018033C70294C267080F838605C5C641CD9
:104DC000E4B25C540179062C00D35A54027924A130
:104DD000985C55F82030684611E0254BA1F110048D
:104DE000102C13D2E2B2985C401CC0B2062800D34B
:104DF00000209854521C55F8203019A1684608F03C
:104E0000D5FD684604F0C8F80DB0F0BD194C202956
:104E100011D02129F8D1227017A1C262067068460C
:104E200008F0C4FD684604F0B7F8164A16A16846B3
:104E300008F0BCFDE5E7184D1968296059686960FC
:104E400016491B892B8122700B6843F480730B6019
:104E5000E2E70000D8000424580004245900042488
:104E60007425642E7478743D22257322FFFFFF00A1
:104E70006E7404245A000424706167652030FFFFBB
:104E8000FF00000050E5000874302E7478743D2255
:104E9000257322FFFFFF000050740424180004242F
:104EA0001FB503A9009102AB01AA09A1FBF7A0FA63
:104EB00003280CD101990948182900D201710299DF
:104EC0003C2900D2417103993C2900D281711FBD58
:104ED00025642E25642E2564000000006300042450
:104EE0002DE9F047044690F83A008EB000282ED005
:104EF000E1784FF0000A84F83AA0042927D12079FC
:104F0000644FDFF894811428DFF89091644E1ED22C
:104F1000DFE800F01D5CB20A11202733484E551D12
:104F20001D1D1D1D1D1D1D3C601D09F03BFA5DA1D1
:104F30000246206305E0601D09F034FA60635DA15C
:104F4000226B01A808F032FD01A804F025F80EB08C
:104F5000BDE8F0875B48611DFBF741FA594A5AA149
:104F6000EFE75D48611DFBF73AFA564A5BA101A8DD
:104F700008F01CFD01A804F00FF8601DFEF784FA8C
:104F8000F0785AA10090B378328807E0601DFFF7EF
:104F900087FFB0795CA100907379327901A808F09D
:104FA00005FDD1E7601D09F0FDF960623860CEE7CC
:104FB000601D09F0F7F96062C8F80000C7E7601DDE
:104FC00009F0F0F96062C9F80000C0E7554D206BA8
:104FD00018B1286840F040002860606B18B128685C
:104FE00040F0800028603748FBF7F2F918B12868D4
:104FF00040F0100028603848FBF7EAF918B128683B
:1050000040F020002860484938680968884203D089
:10501000286840F0020028604449D8F80000096878
:10502000884203D0286840F0040028604049D9F83D
:1050300000000968884203D0286840F00800286012
:105040003C4831790279914213D171794279914288
:105050000FD1B179827991420BD131880288914286
:1050600007D1B1788278914203D1F178C07881423A
:1050700002D00B4808F046FC0121C4F82CA001A87E
:1050800021702DA108F092FC01A803F085FF2D4AA4
:105090002DA156E74C00042450000424540004249D
:1050A0006300042474322E7478743D22256422FF38
:1050B000FFFF000074332E7478743D22256422FFB4
:1050C000FFFF00005A74042474342E7478743D2257
:1050D000257322FFFFFF00006474042474352E74CE
:1050E00078743D22257322FFFFFF000074362E7472
:1050F00078743D22253034642D253032642D2530DE
:10510000326422FFFFFF00007431352E7478743D45
:1051100022253032642E253032642E25303264222E
:10512000FFFFFF0018000424380004243C0004247E
:10513000400004245B000424706167652030FFFF99
:10514000FF00000050E5000874302E7478743D2292
:10515000257322FFFFFF0000642801DB64207047F5
:105160000A2801DB0A207047012801DB0120704773
:1051700000207047D0F81300704780887047C088BF
:105180007047008C0A2801D201207047642801D2A0
:105190000A20704764207047C068704770B5405C53
:1051A000020711D0224A03250928137803F00F02C1
:1051B000C3F3011408D2DFE800F00708050910085E
:1051C0001A2C0800632900D1002070BD09F0DEF818
:1051D00000F0070005EB001070BD09F0D7F8B0FB38
:1051E000F5F2142105FB120001EB001070BD0E2A30
:1051F00000D304245FF0050509F0C8F8B0FBF5F111
:1052000005FB1100A042F7D0062101EB0010C0B24F
:1052100070BD0E2A0AD2052CFAD2DFE804F003038F
:1052200005050700172070BD272070BD372070BD11
:105230008400042400F00F01082913D2DFE801F0F4
:10524000120406080A0C0E1003F0FABF04F07AB834
:1052500004F046B803F0CEBF04F0BAB804F0F6B8D4
:1052600004F016B900207047D0F81700704770B5E9
:105270000D460446405D010703D000F0F0013029DF
:105280001AD909F083F800F0300609F07FF80D21F3
:10529000B0FBF1F201FB12000644761C09F076F82F
:1052A000C00606D109F072F8C00701D00E2600E052
:1052B0000F2606F03F00605570BD807C7047D0F827
:1052C0002E007047D0F846007047D0F8360070477F
:1052D000D0F83E007047D0F84A007047D0F83A0046
:1052E0007047D0F84200704790F82900704790F856
:1052F00028007047408970470089704700887047D0
:1053000040887047C08C7047407C7047D0F88B2035
:10531000D0F88710C0F88B10891A90F897208A422D
:1053200001D9521A00E0002280F8972090F8C52099
:10533000D20605D4D0F84A2022F40072C0F84A20E0
:1053400008467047D0F83200704700002DE9F84F4A
:10535000044600F069FC00903CB194F83500022846
:1053600006D0802161650020E4E00120BDE8F88FCF
:10537000C74DC74EC649183520683036DFF814834C
:10538000DFF814938842DFF814A3DFF814B32ED0AB
:10539000A8422CD0B0422AD0404528D0484526D03B
:1053A000504524D0584522D0BD4A183290421ED0D4
:1053B000BC4A90421BD0BB4A1832904217D0B94A1F
:1053C0003032904213D0B74A483290420FD0B54A9B
:1053D000603290420BD0B34A7832904207D0B14A43
:1053E0009032904203D0AF4AA832904209D102686D
:1053F00022F01E0202602068426922F080024261AF
:1054000003E0026822F00E02026027688F423846ED
:105410004DD0A8424BD0B04249D0404547D0484536
:1054200045D0504543D0584541D09D4A183290420E
:105430003DD09C4A90423AD09A4A1832904236D097
:10544000984A3032904232D0964A483290422ED01A
:10545000944A603290422AD0924A7832904226D0C2
:10546000904A9032904222D08E4AA83290421ED06A
:105470008D4A90421BD08C4A1432904217D08A4AEF
:105480002832904213D0884A3C3290420FD0864A4C
:10549000503290420BD0844A6432904207D0824A04
:1054A0007832904203D0804A8C32974204D1206EE9
:1054B000026822F48072026075492068884228D010
:1054C000A84226D0B04224D0404522D0484520D022
:1054D00050451ED058451CD071491831884218D00B
:1054E0007049884215D06F491831884211D06D49F2
:1054F000303188420DD06B494831884209D0694922
:105500006031884205D067497831884201D06549C9
:105510009031016821F0010101600EE000F084FB90
:105520000099401A052808D920226265032100202D
:1055300084F8351084F8340017E73868C007EDD1D7
:10554000534A0121206890422ED0A8422CD0B0426C
:105550002AD0404528D0484526D0504524D058452B
:1055600022D04F4B183398421ED04E4B98421BD03E
:105570004C4B1833984217D04A4B3033984213D0D3
:10558000484B483398420FD0464B603398420BD07B
:10559000444B7833984207D0424B9033984203D023
:1055A000404BA833984208D194F85C703F23A06D1B
:1055B00007F01F07BB40836007E094F85C30A06DE4
:1055C00003F01F0301FA03F34360206890424DD0BB
:1055D000A8424BD0B04249D0404547D0484545D07D
:1055E000504543D0584541D02D4A183290423DD0C5
:1055F0002C4A90423AD02B4A1832904236D0294A4F
:105600003032904232D0274A483290422ED0254A3A
:10561000603290422AD0234A7832904226D0214AE2
:105620009032904222D01F4AA83290421ED01E4A89
:1056300090421BD01C4A1432904217D01A4A28328A
:10564000904213D0184A3C3290420FD0164A503242
:1056500090420BD0144A6432904207D0124A7832FA
:10566000904203D0104A8C3290420BD1D4E91902F7
:105670004260E06E30B1026822F480720260D4E9C8
:105680001C024260002084F8351084F834006DE676
:1056900010000240580002407000024088000240A2
:1056A000A000024010040240085402582DE9F05FA7
:1056B00028B190F83510022904D0802141650120DD
:1056C000BDE8F09F904C904B0168183C18338E4A0F
:1056D000DFF83C92A1428D4CDFF838E28E4FDFF8C4
:1056E0003CB2DFF83CA28F4D8F4E31D091422FD08B
:1056F00099422DD0A1422BD0494529D0714527D0C0
:10570000B94225D0DFF810C20CF1180C61451FD04A
:10571000DFF808C2ACF1600C614519D0DFF8FCC1BC
:10572000ACF1480C614513D0DFF8F0C1ACF1300C9E
:1057300061450DD0DFF8E4C1ACF1180C614507D02C
:10574000594505D0514503D0A94201D0B1422CD1D1
:10575000DFF8B4C14FF0040880F83580ACF1180CC4
:1057600061451DD091421BD0994219D0A14217D05A
:10577000494515D0714513D0B94211D0664818304B
:1057800081420DD065486038814209D0634848386D
:10579000814205D061483038814201D05F481838D5
:1057A000086820F001000860ABE0D1F800C02CF0E0
:1057B0000E08DFF854C1C1F80080ACF1180C016884
:1057C000614527D0914225D0994223D0A14221D0D2
:1057D00049451FD071451DD0B9421BD0DFF838C1F3
:1057E0000CF1180C614515D0DFF830C1ACF1600C3C
:1057F00061450FD0DFF824C1ACF1480C614509D0F8
:10580000DFF818C1ACF1300C614503D0DFF80CC1F2
:10581000ACF1180CD1F800C02CF0010CC1F800C09C
:10582000DFF8E4804FF0010C0168A8F11808414549
:1058300046D0914244D0994242D0A14240D04945FD
:105840003ED071453CD0B9423AD0334A18329142E9
:1058500036D0324A603A914232D0304A483A914288
:105860002ED02E4A303A91422AD02C4A183A9142F0
:1058700026D0594524D0514522D0A94220D0B1424A
:105880001ED02A4A91421BD0284A1432914217D086
:10589000264A2832914213D0244A3C3291420FD0FA
:1058A000224A503291420BD0204A6432914207D0B2
:1058B0001E4A7832914203D01C4A8C32914218D150
:1058C000016E0A6822F480720A6090F85C20816D93
:1058D00002F01F020CFA02F24A60D0E919124A6083
:1058E000C16E31B10A6822F480720A60D0E91C12DC
:1058F0004A600022016D80F835C080F8342001B183
:1059000088470020DCE600002800024058000240E2
:105910007000024088000240A00002407004024073
:1059200088040240A0040240B8040240085402580F
:10593000F0B5B7B0142130A8FAF73FFDC021684692
:10594000FAF73BFD24480168002942D100220123D7
:1059500003604FF080711446CDE900126846129240
:1059600000F09CFB1D48016841F480510160006813
:10597000022532AA00F4805035904FF23F00CDE965
:105980003005032616480C2782E8D00030A900F025
:105990002FF83F2032AACDE93005124830A982E81D
:1059A000D00000F025F84FF4F06032AACDE93005C0
:1059B0000D4830A982E8D00000F01AF832AA4CF263
:1059C000B300CDE93005094830A982E8D00000F0E5
:1059D0000FF837B0F0BD000010010424D444025881
:1059E000001402580018025800100258000C025807
:1059F0002DE9F84F03247D4D00234FF001094FF0AE
:105A0000B04B4FF00F0AE9E009FA03F73A4076D0BD
:105A10000E7906F00306012E01D0022E18D1D0F81F
:105A200008C04FEA430ECE6804FA0EF82CEA080CC0
:105A300006FA0EF646EA0C068660D0F804C00E7927
:105A40002CEA070CC6F300169E4046EA0C06466098
:105A50000E79F643B6070BD0C6684FEA43088F6845
:105A600004FA08FC26EA0C0607FA08F73743C76071
:105A70000E7906F00306022E12D1DE080F694FEAF6
:105A8000437C00EB8606B646366A4FEADC6C0AFABF
:105A90000CF807FA0CF726EA08063743CEF8207010
:105AA0000F7906684FEA430807F0030704FA08FC79
:105AB00007FA08F726EA0C06374307604E6816F423
:105AC000403F1CD04A4E376847F0020737603668BF
:105AD0009F0706F00206009623F0030606F1B04683
